:020000040000FA
:04000000BCEF11F050
:10060000004C41423620596F756C69616E20486F0D
:100610007565686F756E6F750000000E0001C46F20
:10062000000EC36F000E0001C86F000EC76F000EF2
:100630000001C66F000EC56F0001BBBF2BEF03F0BA
:10064000BB5107E1030EBA5DD8B029EF03F02BEFE1
:1006500003F0EBEF03F00001BBBF37EF03F0BB513A
:1006600008E1BA05D8A037EF03F039EF03F0EBEF5C
:1006700003F00001BDBF45EF03F0BD5108E1BC052B
:10068000D8A045EF03F047EF03F0EBEF03F00001D4
:10069000BDBF56EF03F0BD5107E1140EBC5DD8B0ED
:1006A00054EF03F056EF03F0EBEF03F00001C769DE
:1006B000C8690001C8BF66EF03F0C85109E1020E26
:1006C000C75DD8A066EF03F068EF03F06AEF03F0B0
:1006D000EBEF03F00001C569C6690001C6BF7AEF00
:1006E00003F0C65109E1020EC55DD8A07AEF03F010
:1006F0007CEF03F07EEF03F0D9EF03F0BAC0B4F063
:10070000BBC0B5F0000E0001B76F150EB66FC5EC9B
:1007100012F0600E0001BE6F000EBF6F0001B451F9
:100720000001BE270001B5510001BF23C7C0B4F0CE
:10073000C8C0B5F0000E0001B76F150EB66FC5EC5E
:1007400012F00001B4510001BE270001B5510001B3
:10075000BF230001BC510001BE270001BD510001B3
:10076000BF230001C5510001BE25D96E0001C6514D
:100770000001BF21DA6E020EDE18D8A4C2EF03F02A
:10078000C4EF03F0C7EF03F00001C34BC42B00011B
:10079000C54BC62B0001C6BFD7EF03F0C65109E118
:1007A000020EC55DD8A0D7EF03F0D9EF03F07EEFBE
:1007B00003F00001C74BC82B0001C8BFE9EF03F0ED
:1007C000C85109E1020EC75DD8A0E9EF03F0EBEFD5
:1007D00003F06AEF03F00001BA51BB11D8A4F3EFA4
:1007E00003F0F5EF03F093EF04F00001BC51BD11ED
:1007F000D8A4FDEF03F0FFEF03F093EF04F0BAC0CD
:10080000B4F0BBC0B5F0000E0001B76F150EB66FA7
:10081000C5EC12F0600E0001BE6F000EBF6F010E3E
:10082000BE27000EBF230001B4510001BE27000106
:10083000B5510001BF230001BC510001BE25D96E96
:100840000001BD510001BF21DA6E020EDE18D8A4EE
:100850002CEF04F02EEF04F031EF04F00001C34B55
:10086000C42B000E0001C66F000EC56F0001C6BF8D
:1008700043EF04F0C65109E1020EC55DD8A043EF75
:1008800004F045EF04F047EF04F093EF04F0BAC032
:10089000B4F0BBC0B5F0000E0001B76F150EB66F17
:1008A000C5EC12F0600E0001BE6F000EBF6F150E9A
:1008B000BE27000EBF230001B4510001BE27000176
:1008C000B5510001BF230001BC510001BE2700014A
:1008D000BD510001BF230001C5510001BE25D96EE5
:1008E0000001C6510001BF21DA6E020EDE18D8A445
:1008F0007CEF04F07EEF04F081EF04F00001C34BC5
:10090000C42B0001C54BC62B0001C6BF91EF04F0FC
:10091000C65109E1020EC55DD8A091EF04F093EF36
:1009200004F047EF04F00001BA51BB11D8A49BEFCB
:1009300004F09DEF04F03CEF05F0140E0001BC192B
:10094000BD11D8A4A6EF04F0A8EF04F03CEF05F029
:10095000BAC0B4F0BBC0B5F0000E0001B76F150E01
:10096000B66FC5EC12F0FF0E0001BE6FFF0EBF6F39
:10097000600EC06F000EC16FBE51C027BF51C123B2
:100980000001B4510001C0270001B5510001C1238D
:100990000001BC510001C025D96E0001BD5100010C
:1009A000C121DA6E020EDE18D8A4D9EF04F0DBEF15
:1009B00004F0DEEF04F00001C34BC42B0001C76953
:1009C000C8690001C8BFEDEF04F0C85108E1C705D0
:1009D000D8A0EDEF04F0EFEF04F0F1EF04F03CEFFE
:1009E00005F0BAC0B4F0BBC0B5F0000E0001B76F9F
:1009F000150EB66FC5EC12F0600E0001BE6F000E52
:100A0000BF6F150EBE27000EBF230001B4510001B9
:100A1000BE270001B5510001BF230001BC510001F8
:100A2000BE270001BD510001BF230001C7510001D5
:100A3000BE25D96E0001C8510001BF21DA6E020E39
:100A4000DE18D8A426EF05F028EF05F02BEF05F00F
:100A50000001C34BC42B0001C74BC82B0001C8BF0A
:100A60003AEF05F0C85108E1C705D8A03AEF05F004
:100A70003CEF05F0F1EF04F00001BA51BB11D8A42E
:100A800044EF05F046EF05F058EF06F00001BDBF5A
:100A900055EF05F0BD5107E1140EBC5DD8B053EF22
:100AA00005F055EF05F058EF06F00001BDBF61EF0E
:100AB00005F0BD5108E1BC05D8A061EF05F063EF7A
:100AC00005F058EF06F00001C769C8690001C8BF0A
:100AD00073EF05F0C85109E1020EC75DD8A073EFAE
:100AE00005F075EF05F077EF05F0C1EF05F0BAC03E
:100AF000B4F0BBC0B5F0000E0001B76F150EB66FB5
:100B0000C5EC12F0600E0001BE6F000EBF6F000159
:100B1000B4510001BE270001B5510001BF230001FF
:100B2000BC510001BE270001BD510001BF230001DF
:100B3000C7510001BE25D96E0001C8510001BF2177
:100B4000DA6E020EDE18D8A4A8EF05F0AAEF05F0C1
:100B5000ADEF05F00001C34BC42B0001C74BC82B00
:100B6000C74BC82B0001C8BFBFEF05F0C85109E152
:100B7000020EC75DD8A0BFEF05F0C1EF05F077EF1B
:100B800005F0000E0001C86F010EC76F0001C8BF5D
:100B9000D3EF05F0C85109E1020EC75DD8A0D3EF2D
:100BA00005F0D5EF05F0D7EF05F058EF06F000019E
:100BB000C569C6690001C6BFE7EF05F0C65109E186
:100BC000020EC55DD8A0E7EF05F0E9EF05F0EBEF09
:100BD00005F046EF06F0BAC0B4F0BBC0B5F0000EA9
:100BE0000001B76F150EB66FC5EC12F0600E000174
:100BF000BE6F000EBF6F0001B4510001BE2700019F
:100C0000B5510001BF23C7C0B4F0C8C0B5F0000E95
:100C10000001B76F150EB66FC5EC12F00001B451AC
:100C20000001BE270001B5510001BF230001BC51E6
:100C30000001BE270001BD510001BF230001C551C5
:100C40000001BE25D96E0001C6510001BF21DA6E38
:100C5000020EDE18D8A42FEF06F031EF06F034EFC5
:100C600006F00001C34BC42B0001C54BC62B00018D
:100C7000C6BF44EF06F0C65109E1020EC55DD8A01B
:100C800044EF06F046EF06F0EBEF05F00001C74B2E
:100C9000C82B0001C8BF56EF06F0C85109E1020E8B
:100CA000C75DD8A056EF06F058EF06F0D7EF05F075
:100CB000030E0001BA19BB11D8A461EF06F063EF6F
:100CC00006F00CEF07F00001BC51BD11D8A46BEF8A
:100CD00006F06DEF06F00CEF07F0BAC0B4F0BBC041
:100CE000B5F0000E0001B76F150EB66FC5EC12F02F
:100CF000EB0E0001BE6FFF0EBF6F600EC06F000EE7
:100D0000C16FBE51C027BF51C1230001B4510001C2
:100D1000C0270001B5510001C1230001BC510001F1
:100D2000C025D96E0001BD510001C121DA6E020E4D
:100D3000DE18D8A49EEF06F0A0EF06F0A3EF06F0B1
:100D40000001C34BC42B0001C769C8690001C8BFBB
:100D5000B2EF06F0C85108E1C705D8A0B2EF06F01F
:100D6000B4EF06F0B6EF06F00CEF07F0BAC0B4F03F
:100D7000BBC0B5F0000E0001B76F150EB66FC5EC25
:100D800012F0600E0001BE6F000EBF6F010EBE2795
:100D9000000EBF230001B4510001BE270001B55170
:100DA0000001BF23C7C0B4F0C8C0B5F0000E0001F9
:100DB000B76F150EB66FC5EC12F00001B45100010B
:100DC000BE270001B5510001BF230001BC51000145
:100DD000BE25D96E0001BD510001BF21DA6E020EA1
:100DE000DE18D8A4F6EF06F0F8EF06F0FBEF06F0F9
:100DF0000001C34BC42B0001C74BC82B0001C8BF67
:100E00000AEF07F0C85108E1C705D8A00AEF07F0BC
:100E10000CEF07F0B6EF06F0030E0001BA19BB1194
:100E2000D8A415EF07F017EF07F0BAEF07F0140E8C
:100E30000001BC19BD11D8A420EF07F022EF07F084
:100E4000BAEF07F00001C769C8690001C8BF31EFF8
:100E500007F0C85108E1C705D8A031EF07F033EF1C
:100E600007F035EF07F084EF07F0BAC0B4F0BBC06D
:100E7000B5F0000E0001B76F150EB66FC5EC12F09D
:100E8000EB0E0001BE6FFF0EBF6F600EC06F000E55
:100E9000C16FBE51C027BF51C1230001B451000131
:100EA000C0270001B5510001C1230001BC51000160
:100EB000C0270001BD510001C1230001C75100013D
:100EC000C025D96E0001C8510001C121DA6E020EA1
:100ED000DE18D8A46EEF07F070EF07F073EF07F09D
:100EE0000001C34BC42B0001C74BC82B0001C8BF76
:100EF00082EF07F0C85108E1C705D8A082EF07F0DC
:100F000084EF07F035EF07F0BAC0B4F0BBC0B5F01E
:100F1000000E0001B76F150EB66FC5EC12F0FF0E94
:100F20000001BE6FFF0EBF6F600EC06F000EC16F7D
:100F3000BE51C027BF51C1230001B4510001C027D9
:100F40000001B5510001C1230001BC510001C025C1
:100F5000D96E0001BD510001C121DA6E020EDE180A
:100F6000D8A4B5EF07F0B7EF07F0BAEF07F000012C
:100F7000C34BC42B030E0001BA19BB11D8A4C3EF95
:100F800007F0C5EF07F0A4EF08F00001BDBFD4EFF4
:100F900007F0BD5107E1140EBC5DD8B0D2EF07F0E9
:100FA000D4EF07F0A4EF08F00001BDBFE0EF07F0B9
:100FB000BD5108E1BC05D8A0E0EF07F0E2EF07F073
:100FC000A4EF08F00001C569C6690001C6BFF2EFD1
:100FD00007F0C65109E1020EC55DD8A0F2EF07F097
:100FE000F4EF07F0F6EF07F046EF08F0BAC0B4F000
:100FF000BBC0B5F0000E0001B76F150EB66FC5ECA3
:1010000012F0EB0E0001BE6FFF0EBF6F600EC06FDF
:10101000000EC16FBE51C027BF51C1230001B451A2
:101020000001C0270001B5510001C1230001BC51DE
:101030000001C0270001BD510001C1230001C551BD
:101040000001C025D96E0001C6510001C121DA6E30
:10105000020EDE18D8A42FEF08F031EF08F034EFBD
:1010600008F00001C34BC42B0001C54BC62B000187
:10107000C6BF44EF08F0C65109E1020EC55DD8A015
:1010800044EF08F046EF08F0F6EF07F00001C769FB
:10109000C8690001C8BF56EF08F0C85109E1020E47
:1010A000C75DD8A056EF08F058EF08F05AEF08F0E7
:1010B000A4EF08F0BAC0B4F0BBC0B5F0000E000158
:1010C000B76F150EB66FC5EC12F0600E0001BE6F63
:1010D000000EBF6F0001B4510001BE270001B551E1
:1010E0000001BF230001BC510001BE270001BD511A
:1010F0000001BF230001C7510001BE25D96E0001C8
:10110000C8510001BF21DA6E020EDE18D8A48BEFA1
:1011100008F08DEF08F090EF08F00001C34BC42BEE
:101120000001C74BC82BC74BC82B0001C8BFA2EF9B
:1011300008F0C85109E1020EC75DD8A0A2EF08F07F
:10114000A4EF08F05AEF08F00001C35112000001AB
:10115000C16F000E0001C56F000EC46F000E0001CC
:10116000C06F000EBF6F0001BA51150D000E0001D7
:10117000BB6F010EBC6FF350BB27F450BC230001C2
:10118000C1510001BB25D96E0001000E0001BC2138
:10119000DA6E200EDF6E0001C469C5690001C5BFAB
:1011A000DBEF08F0C55109E1020EC45DD8A0DBEF0A
:1011B00008F0DDEF08F0DFEF08F01FEF0AF00001A4
:1011C000BA51D8A4E6EF08F0E8EF08F0F8EF08F01D
:1011D0000001C42906E1C529D8A4F1EF08F0F3EF16
:1011E00008F0F8EF08F0000E0001C56F000EC46FA4
:1011F0000001C269C3690001C3BF08EF09F0C35110
:1012000009E1020EC25DD8A008EF09F00AEF09F06B
:101210000CEF09F0F4EF09F00001C151D8A413EF6D
:1012200009F015EF09F025EF09F00001C22906E1E8
:10123000C329D8A41EEF09F020EF09F025EF09F02B
:10124000000E0001C36F000EC26FC4C0B4F0C5C071
:10125000B5F0000E0001B76F150EB66FC5EC12F0B9
:101260000001BA51150D600E0001BB6F000EBC6F7E
:10127000F350BB27F450BC230001B4510001BB273D
:101280000001B5510001BC230001C1510001BB2781
:10129000000EBC230001C2510001BB25D96E000124
:1012A000C3510001BC21DA6EC4C0B4F0C5C0B5F0B2
:1012B000000E0001B76F150EB66FC5EC12F00001FD
:1012C000BA51150D000E0001BD6F010EBE6FF35037
:1012D000BD27F450BE230001B4510001BD27000119
:1012E000B5510001BE230001C1510001BD27000E10
:1012F000BE230001C2510001BD25E16E0001C351B2
:101300000001BE21E26EDFCFE7FF0001BA5100010C
:10131000C4250001BB6FBB290001B76F0001C1519B
:101320000001C2250001BC6FBC29E2EC10F0C4C072
:10133000B4F0C5C0B5F0000E0001B76F150EB66F62
:10134000C5EC12F00001BA51150D000E0001BB6F83
:10135000010EBC6FF350BB27F450BC230001B45105
:101360000001BB270001B5510001BC230001C151A0
:101370000001BB27000EBC230001C2510001BB25A8
:10138000D96E0001C3510001BC21DA6EDF5016ECAA
:1013900012F0130E0001C119D8A4D1EF09F0D3EF58
:1013A00009F0E2EF09F00001C251C311D8A4DBEF4C
:1013B00009F0DDEF09F0E2EF09F0000E0001C36F64
:1013C000010EC26F0001C24BC32B0001C3BFF2EF7D
:1013D00009F0C35109E1020EC25DD8A0F2EF09F095
:1013E000F4EF09F00CEF09F0030E0001BA19D8A4CC
:1013F000FCEF09F0FEEF09F00DEF0AF00001C45117
:10140000C511D8A406EF0AF008EF0AF00DEF0AF0B4
:10141000000E0001C56F010EC46F0001C44BC52B47
:101420000001C5BF1DEF0AF0C55109E1020EC45D00
:10143000D8A01DEF0AF01FEF0AF0DFEF08F012004E
:10144000000E0001CF6F000ECE6F000E0001D16FB5
:10145000000ED06F000E0001CD6F000ECC6F000E9D
:101460000001CF6F000ECE6F0001CFBF41EF0AF039
:10147000CF5109E1040ECE5DD8A041EF0AF043EF51
:101480000AF045EF0AF01CEF0BF0000E0001D16FDF
:10149000000ED06F0001D1BF57EF0AF0D15109E122
:1014A000140ED05DD8A057EF0AF059EF0AF05BEFA9
:1014B0000AF00AEF0BF0CEC0B4F0CFC0B5F0000ECA
:1014C0000001B76F150EB66FC5EC12F0600E00018B
:1014D000C96F000ECA6F0001B4510001C927000195
:1014E000B5510001CA230001D0510001C925D96EB0
:1014F0000001D1510001CA21DA6E020EDE18D8B403
:1015000084EF0AF086EF0AF0F8EF0AF0CEC0BAF0E6
:10151000CFC0BBF0D0C0BCF0D1C0BDF00DEC03F02B
:101520000001C96FC9510001CC6FCD6B0001CC51D6
:10153000CD11D8A49EEF0AF0A0EF0AF0C4EF0AF094
:10154000CEC0B4F0CFC0B5F0000E0001B76F150EDD
:10155000B66FC5EC12F0600E0001C96F000ECA6FC5
:101560000001B4510001C9270001B5510001CA238F
:101570000001D0510001C925D96E0001D1510001EF
:10158000CA21DA6E200EDF6E0001CDBFD0EF0AF067
:10159000CD5108E1CC05D8A0D0EF0AF0D2EF0AF087
:1015A000F8EF0AF0CEC0B4F0CFC0B5F0000E0001E5
:1015B000B76F150EB66FC5EC12F0600E0001C96F63
:1015C000000ECA6F0001B4510001C9270001B551D6
:1015D0000001CA230001D0510001C925D96E0001C4
:1015E000D1510001CA21DA6E0001CC51300FDF6EFB
:1015F0000001D04BD12B0001D1BF08EF0BF0D1512E
:1016000009E1140ED05DD8A008EF0BF00AEF0BF043
:101610005BEF0AF00001CE4BCF2B0001CFBF1AEFDA
:101620000BF0CF5109E1040ECE5DD8A01AEF0BF0FC
:101630001CEF0BF045EF0AF01200000E0001CE6F18
:10164000000ECD6F000E0001D06F000ECF6F000EA8
:101650000001D16F000E0001D26F000E0001D36FA8
:10166000000E0001D56F000ED46F0001D5BF42EF10
:101670000BF0D55109E1040ED45DD8A042EF0BF078
:1016800044EF0BF046EF0BF0F8EF0BF0000E00010B
:10169000D76F000ED66F0001D7BF58EF0BF0D751B0
:1016A00009E1140ED65DD8A058EF0BF05AEF0BF0FD
:1016B0005CEF0BF092EF0BF0D4C0B4F0D5C0B5F0F6
:1016C000000E0001B76F150EB66FC5EC12F0600E7C
:1016D0000001CA6F000ECB6F0001B4510001CA2790
:1016E0000001B5510001CB230001D6510001CA25EC
:1016F000D96E0001D7510001CB21DA6E200EDF6ECA
:101700000001D64BD72B0001D7BF90EF0BF0D7517C
:1017100009E1140ED65DD8A090EF0BF092EF0BF01C
:101720005CEF0BF00001D44BD52B0001D5BFA2EF2D
:101730000BF0D55109E1040ED45DD8A0A2EF0BF057
:10174000A4EF0BF046EF0BF0F8EF0BF0EBEC11F021
:10175000C0C0C2F0C1C0C3F0000E0001C56F140EBE
:10176000C46FE7EC0FF00001C2510001D16FEBEC48
:1017700011F00001C051030B0001D26F0001D251E2
:10178000150D600E0001CA6F000ECB6FF350CA2713
:10179000F450CB230001D1510001CA25D96E0001BC
:1017A000000E0001CB21DA6E200EDE18D8A4DBEF8C
:1017B0000BF0DDEF0BF0F8EF0BF00001D251150D3F
:1017C000600E0001CA6F000ECB6FF350CA27F450B1
:1017D000CB230001D1510001CA25D96E0001000EB2
:1017E0000001CB21DA6E020EDF6E0001D329D36F28
:1017F0000001D3510001CA6FCB6B0001C851000139
:10180000CA1909E10001C9510001CB19D8A40BEF95
:101810000CF00DEF0CF0A6EF0BF012000001CC6FF6
:101820000001CC05CC6F0001C605C66F010E00019A
:10183000CB6F0001C651150D600E0001C76F000E81
:10184000C86FF350C727F450C8230001CC510001E2
:10185000C725D96E0001000E0001C821DA6E020E04
:10186000DE18D8A436EF0CF038EF0CF03DEF0CF09A
:10187000000E0001CB6FD0EF0CF00001C651150D2A
:10188000600E0001C76F000EC86FF350C727F450F9
:10189000C8230001CC510001C725D96E0001000EFC
:1018A0000001C821DA6E020EDE18D8B45AEF0CF02F
:1018B0005CEF0CF086EF0CF00001C651150D600EC8
:1018C0000001C76F000EC86FF350C727F450C8233C
:1018D0000001CC510001C725D96E0001000E0001A6
:1018E000C821DA6E200EDE18D8A479EF0CF07BEF59
:1018F0000CF086EF0CF0010E0001CB6FC6C0BAF001
:101900000001CC51A7EC08F0D0EF0CF0010E000163
:10191000CB6F0001C651150D600E0001C76F000EA0
:10192000C86FF350C727F450C8230001CC51000101
:10193000C725D96E0001000E0001C821DA6E000132
:10194000C651150D000E0001C96F010ECA6FF3508C
:10195000C927F450CA230001CC510001C925E16E0A
:101960000001000E0001CA21E26EDFCFE7FF000197
:10197000C651150D000E0001C76F010EC86FF35060
:10198000C727F450C8230001CC510001C725D96EE8
:101990000001000E0001C821DA6EDF5016EC12F0D3
:1019A0000001CB511200060E9BEC12F00001BD6F3E
:1019B000DC0EBD65DEEF0CF0E0EF0CF001EF0DF09A
:1019C000B9C0D9FFBAC0DAFFDF500001BD6FBD2931
:1019D000B9C0D9FFBAC0DAFFDF6EB9C0D9FFBAC04B
:1019E000DAFF140EDF64F7EF0CF0F9EF0CF02DEFD7
:1019F0000DF0B9C0D9FFBAC0DAFF010EDF6E2DEFCE
:101A00000DF0060E9BEC12F00001BD6F6E0EBD6175
:101A10000CEF0DF00EEF0DF02DEF0DF0B9C0D9FF6A
:101A2000BAC0DAFFDF500001BD6FBD05B9C0D9FFF4
:101A3000BAC0DAFFDF6EB9C0D9FFBAC0DAFFDF5033
:101A4000D8A425EF0DF027EF0DF02DEF0DF0B9C064
:101A5000D9FFBAC0DAFF140EDF6E070E9BEC12F04E
:101A60000001BD6F6E0EBD6138EF0DF03AEF0DF065
:101A70005BEF0DF0BBC0D9FFBCC0DAFFDF50000147
:101A8000BD6FBD29BBC0D9FFBCC0DAFFDF6EBBC0D4
:101A9000D9FFBCC0DAFF040EDF6451EF0DF053EF45
:101AA0000DF087EF0DF0BBC0D9FFBCC0DAFF010E0F
:101AB000DF6E87EF0DF0070E9BEC12F00001BD6F9B
:101AC000C80EBD6566EF0DF068EF0DF087EF0DF005
:101AD000BBC0D9FFBCC0DAFFDF500001BD6FBD0540
:101AE000BBC0D9FFBCC0DAFFDF6EBBC0D9FFBCC032
:101AF000DAFFDF50D8A47FEF0DF081EF0DF087EF14
:101B00000DF0BBC0D9FFBCC0DAFF040EDF6EBBC056
:101B1000D9FFBCC0DAFFDF500001B76FB9C0D9FFF1
:101B2000BAC0DAFFDF50E2EC10F01200000E000144
:101B3000BD6F000EBC6F000E0001BF6F000EBE6FC8
:101B4000000E0001BD6F000EBC6F0001BDBFB2EF03
:101B50000DF0BD5109E1040EBC5DD8A0B2EF0DF04F
:101B6000B4EF0DF0B6EF0DF052EF0EF0000E0001E5
:101B7000BF6F000EBE6F0001BFBFC8EF0DF0BF51B9
:101B800009E1150EBE5DD8A0C8EF0DF0CAEF0DF04B
:101B9000CCEF0DF040EF0EF00001BDBFDBEF0DF01C
:101BA000BD5107E1140EBC5DD8B0D9EF0DF0DBEFED
:101BB0000DF0FFEF0DF0BCC0B4F0BDC0B5F0000EED
:101BC0000001B76F150EB66FC5EC12F0000E0001E4
:101BD000BA6F010EBB6F0001B4510001BA270001BA
:101BE000B5510001BB230001BE510001BA25D96ED9
:101BF0000001BF510001BB21DA6E010EDF6E140E31
:101C00000001BE19BF11D8A408EF0EF00AEF0EF0C4
:101C10002EEF0EF0BCC0B4F0BDC0B5F0000E000158
:101C2000B76F150EB66FC5EC12F0000E0001BA6F5B
:101C3000010EBB6F0001B4510001BA270001B5517C
:101C40000001BB230001BE510001BA25D96E00017D
:101C5000BF510001BB21DA6E000EDF6E0001BE4BEA
:101C6000BF2B0001BFBF3EEF0EF0BF5109E1150EC3
:101C7000BE5DD8A03EEF0EF040EF0EF0CCEF0DF0C1
:101C80000001BC4BBD2B0001BDBF50EF0EF0BD519C
:101C900009E1040EBC5DD8A050EF0EF052EF0EF03B
:101CA000B6EF0DF01200000E0001C06F000EBF6F06
:101CB000000E0001C16F000E0001C36F000EC26F65
:101CC000000E0001C56F000EC46F000E0001C36F4F
:101CD000000EC26F0001C3BF77EF0EF0C35109E1E0
:101CE000040EC25DD8A077EF0EF079EF0EF07BEF17
:101CF0000EF0E2EF0EF0000E0001C56F000EC46F93
:101D00000001C5BF8DEF0EF0C55109E1140EC45D91
:101D1000D8A08DEF0EF08FEF0EF091EF0EF0D0EF18
:101D20000EF0C2C0B4F0C3C0B5F0000E0001B76F32
:101D3000150EB66FC5EC12F0000E0001BC6F010E5F
:101D4000BD6F0001B4510001BC270001B551000175
:101D5000BD230001C4510001BC25D96E0001C5514D
:101D60000001BD21DA6EDE04D8A4B9EF0EF0BBEF9E
:101D70000EF0BEEF0EF00001BF4BC02B0001C44BB4
:101D8000C52B0001C5BFCEEF0EF0C55109E1140E01
:101D9000C45DD8A0CEEF0EF0D0EF0EF091EF0EF0B4
:101DA0000001C24BC32B0001C3BFE0EF0EF0C351D3
:101DB00009E1040EC25DD8A0E0EF0EF0E2EF0EF0F4
:101DC0007BEF0EF0BAC0D9FFBBC0DAFF0001BF51F4
:101DD000DE1807E1C051DE18D8A4F1EF0EF0F3EFE2
:101DE0000EF00DEF0FF009EC13F0BAC0D9FFBBC035
:101DF000DAFFDECFBCF0DDCFBDF0010E0001BC2765
:101E0000000EBD23BAC0D9FFBBC0DAFFBCC0DEFFE5
:101E1000BDC0DDFF010E0001C16F0001C151120004
:101E2000D9EC12F0ECEC12F0B1EC12F096EC0DF0F3
:101E300010EC13F0000E0001DA6F0C0ED96F0A0ED1
:101E40000001DB6F020E0001DC6F010E0001BA6FB2
:101E5000060EBB6FBA51BB11D8A4000EBC6F8DEC3F
:101E60000FF0D9C0C8F0DAC0C9F01DEC0BF020ECBF
:101E70000AF091EC10F0DB0E0001B96F000EBA6FA2
:101E8000DC0E0001BB6F000EBC6FD3EC0CF081B216
:101E90004CEF0FF04EEF0FF080EF0FF0DCC0C6F00C
:101EA0000001DB510EEC0CF00009D8B45AEF0FF032
:101EB0005CEF0FF06BEF0FF0D90E0001BA6F000E60
:101EC000BB6F53EC0EF0E806D8A469EF0FF06BEF90
:101ED0000FF080EF0FF091EC10F081B272EF0FF085
:101EE00074EF0FF06DEF0FF096EC0DF0D9C0C8F065
:101EF000DAC0C9F01DEC0BF020EC0AF091EC10F008
:101F0000210E0001D86F760EE82EFED7D82FFCD711
:101F100000F03BEF0FF000EF00F0000E0001C26F89
:101F2000BAEF0FF00001C2510001BD6FBE6BBD5191
:101F30000001BA250001BF6FBE510001BB210001A5
:101F4000C06F000E0001BC210001C16FBFC0F6FFD1
:101F5000C0C0F7FFC1C0F8FFF8BA03D00800F550C1
:101F600005D0F6CFE9FFF7CFEAFFEF5016EC12F0FD
:101F70000001C22B0001C2510001BD6FBE6BBD51FB
:101F80000001BA250001BF6FBE510001BB21000155
:101F9000C06F000E0001BC210001C16FBFC0F6FF81
:101FA000C0C0F7FFC1C0F8FFF8BA03D00800F55071
:101FB00005D0F6CFE9FFF7CFEAFFEF500009D8A42C
:101FC000E4EF0FF0E6EF0FF092EF0FF01200000ECB
:101FD0000001C76FC3BFF1EF0FF0EFEF0FF0F7EFA6
:101FE0000FF0C26DC31FD8B0C32B010EC76FC5BFA2
:101FF000FEEF0FF0FCEF0FF002EF10F0C46DC51F05
:10200000D8B0C52BC451C511D8B409EF10F00BEFEF
:1020100010F02FEF10F0010EC66F13EF10F0D890F4
:10202000C437C537C62BC5AF18EF10F01AEF10F044
:102030000FEF10F0C451C25DC551C359D8A023EFB2
:1020400010F025EF10F029EF10F0C451C25FC55118
:10205000C35BD890C533C433C62F1AEF10F0C751F5
:10206000D8B435EF10F037EF10F03BEF10F0C26D41
:10207000C31FD8B0C32BC2C0C2F0C3C0C3F012008C
:10208000400E51EC11F0000E0001B96F070E000177
:10209000B9654DEF10F04FEF10F051EF10F08EEFEB
:1020A00010F0000E0001BA6F070E0001BA655BEF79
:1020B00010F05DEF10F05FEF10F083EF10F0000113
:1020C000B951080D540E0001B76F010EB86FF350EF
:1020D000B727F450B8230001BA510001B725D96ED3
:1020E0000001000E0001B821DA6EDF5081EC12F021
:1020F0000001BA2B070E0001BA6581EF10F083EFE3
:1021000010F05FEF10F00001B92B070E0001B96568
:102110008CEF10F08EEF10F051EF10F010EC13F088
:102120001200000E0001C66F000EC56F0001C6BF91
:10213000A3EF10F0C65109E1040EC55DD8A0A3EFCE
:1021400010F0A5EF10F0A7EF10F0E1EF10F0000194
:10215000C5290001B76F010EE2EC10F0C5C0B4F064
:10216000C6C0B5F0000E0001B76F150EB66FC5EC16
:1021700012F0000E0001B4250001C36F010E000132
:10218000B5210001C46FC3C0BAF0C4C0BBF00001E8
:10219000BA51BB11D8A4200EBC6F8DEC0FF000011A
:1021A000C54BC62B0001C6BFDFEF10F0C65109E1D9
:1021B000040EC55DD8A0DFEF10F0E1EF10F0A7EF3F
:1021C00010F012000001B86F06EF11F00001B851D5
:1021D0007F0F800951EC11F01AEF11F00001B85196
:1021E000BF0F800951EC11F01AEF11F00001B85146
:1021F000930F800951EC11F01AEF11F00001B85162
:10220000D30F800951EC11F01AEF11F00001B75112
:10221000010AD8B4E6EF10F0030AD8B4EEEF10F0DC
:10222000010AD8B4F6EF10F0070AD8B4FEEF10F0A8
:102230001AEF11F01200000E0001BC6F000EBD6F0E
:10224000000EBE6F000EBF6FB4A129EF11F02BEF8F
:1022500011F033EF11F0B851BC27B951BD23BA5179
:10226000BE23BB51BF23D890B837B937BA37BB3775
:10227000D890B733B633B533B433B451B511B611C2
:10228000B711D8A446EF11F048EF11F024EF11F088
:10229000BCC0B4F0BDC0B5F0BEC0B6F0BFC0B7F0B2
:1022A00012000001B66F40EC12F0000E956E8090A7
:1022B00080920001B6390F0BFBEC12F014EC13F016
:1022C0000001B651FBEC12F014EC13F0030EE82EF3
:1022D000FED700F00001B605D8B471EF11F073EF2E
:1022E00011F07DEF11F0020E0001B619D8A47BEFBA
:1022F00011F07DEF11F082EF11F0A60EE82EFED75F
:1023000000F000F00F0E956E40EC12F01200000E7F
:10231000956E0D0E0001B66FFB0EE82EFED7B62FA0
:10232000FCD700F000F080908092030EFBEC12F0DE
:1023300014EC13F0030EE82EFED700F0030EFBECB6
:1023400012F014EC13F0030EE82EFED700F0030E8B
:10235000FBEC12F014EC13F0030EE82EFED700F0A5
:10236000020EFBEC12F014EC13F0030EE82EFED775
:1023700000F00F0E956E1200C20EF66E240EF76E70
:10238000000EF86E01EE54F010EE40F00900F5CFAB
:10239000EEFFE550E150FAE1360EF66E260EF76ECE
:1023A000000EF86E00EEDDF010EE04F00900F5CF3F
:1023B000EEFFE550E150FAE101EE00F0540EEE6A56
:1023C000E806FDE100EE60F0540EEE6AE806FDE17D
:1023D000000110EF0FF0DDC0B4F0DEC0B5F0DFC0DB
:1023E000B6F0E0C0B7F06D0E0001B86F4E0EB96FD9
:1023F000C60EBA6F410EBB6F1BEC11F0B4C0DDF01E
:10240000B5C0DEF0B6C0DFF0B7C0E0F0390E0001B5
:10241000DD27300EDE23000EDF23000EE023FF0E4B
:10242000DF15C06F7F0EE015C16F12000001B76F9E
:102430000001B75181EC12F00001B86F2FEF12F0DC
:10244000C00E51EC11F03FEF12F0940E51EC11F070
:102450003FEF12F0D40E51EC11F03FEF12F00001FB
:10246000B851940AD8B420EF12F0540AD8B42AEF25
:1024700012F0140AD8B425EF12F03FEF12F0120058
:1024800080908082808400F018EC13F00001B46F1B
:10249000B439F00B0001B56F8094808400F018EC23
:1024A00013F00001B51380940001B5BF5AEF12F08C
:1024B0005CEF12F042EF12F080920001B5517F0BF9
:1024C00012000804040A111F1100000E0E0E0E0E59
:1024D0000E000000040E0E0E040008040E111F1062
:1024E0000E0008041F101E101F00040A0E111F10FA
:1024F0000E0008040E010F110F00040A0E010F1147
:102500000F000001B66F40EC12F0000E956E808057
:1025100080920001B6390F0BFBEC12F014EC13F0B3
:102520000001B651FBEC12F014EC13F00F0E956E97
:1025300040EC12F012000001B56FB5C0B4F000011C
:10254000B447B447C250B419C30BB419C26EC282A7
:10255000C2B2ADEF12F0AFEF12F0A8EF12F0C4501C
:10256000120087EC11F0280E51EC11F00F0E51EC17
:1025700011F0010E51EC11F0060E51EC11F0800E2D
:1025800051EC11F040EC10F012000001B451B60310
:10259000F3CFB8F0F4CFB9F0B451B703F350B92783
:1025A000B551B603F350B927B8C0B4F0B9C0B5F00F
:1025B0001200000E956E000E7F6E9368000E7E6E08
:1025C000000E926E000EC16E7E8EC280C09EC70E3F
:1025D000C016F80EC0161200948E948C000EB06EC9
:1025E000190EAF6EB886AC84AC98AC8AAB88AB8E53
:1025F000000E7E6E12000001B56F83CFB4F0F00EB6
:102600000001B4170001B5510F0B0001B411836E26
:102610001200010E51EC11F0800E51EC11F012007D
:10262000020E51EC11F01200808400F08094120030
:0A26300083500F0B120001000000A0
:020000040020DA
:08000000FFFFFFFFFFFFFFFF00
:020000040030CA
:0E000000FF081F1EFF8B81FF0FC00FE00F4097
:00000001FF
