:020000040000FA
:040000007CEF11F090
:10060000004C41423620596F756C69616E20486F0D
:100610007565686F756E6F750000000E0001C46F20
:10062000000EC36F000E0001C86F000EC76F000EF2
:100630000001C66F000EC56F0001BBBF2BEF03F0BA
:10064000BB5107E1030EBA5DD8B029EF03F02BEFE1
:1006500003F0EBEF03F00001BBBF37EF03F0BB513A
:1006600008E1BA05D8A037EF03F039EF03F0EBEF5C
:1006700003F00001BDBF45EF03F0BD5108E1BC052B
:10068000D8A045EF03F047EF03F0EBEF03F00001D4
:10069000BDBF56EF03F0BD5107E1140EBC5DD8B0ED
:1006A00054EF03F056EF03F0EBEF03F00001C769DE
:1006B000C8690001C8BF66EF03F0C85109E1020E26
:1006C000C75DD8A066EF03F068EF03F06AEF03F0B0
:1006D000EBEF03F00001C569C6690001C6BF7AEF00
:1006E00003F0C65109E1020EC55DD8A07AEF03F010
:1006F0007CEF03F07EEF03F0D9EF03F0BAC0B4F063
:10070000BBC0B5F0000E0001B76F150EB66F85ECDB
:1007100012F0600E0001BE6F000EBF6F0001B451F9
:100720000001BE270001B5510001BF23C7C0B4F0CE
:10073000C8C0B5F0000E0001B76F150EB66F85EC9E
:1007400012F00001B4510001BE270001B5510001B3
:10075000BF230001BC510001BE270001BD510001B3
:10076000BF230001C5510001BE25D96E0001C6514D
:100770000001BF21DA6E020EDE18D8A4C2EF03F02A
:10078000C4EF03F0C7EF03F00001C34BC42B00011B
:10079000C54BC62B0001C6BFD7EF03F0C65109E118
:1007A000020EC55DD8A0D7EF03F0D9EF03F07EEFBE
:1007B00003F00001C74BC82B0001C8BFE9EF03F0ED
:1007C000C85109E1020EC75DD8A0E9EF03F0EBEFD5
:1007D00003F06AEF03F00001BA51BB11D8A4F3EFA4
:1007E00003F0F5EF03F093EF04F00001BC51BD11ED
:1007F000D8A4FDEF03F0FFEF03F093EF04F0BAC0CD
:10080000B4F0BBC0B5F0000E0001B76F150EB66FA7
:1008100085EC12F0600E0001BE6F000EBF6F010E7E
:10082000BE27000EBF230001B4510001BE27000106
:10083000B5510001BF230001BC510001BE25D96E96
:100840000001BD510001BF21DA6E020EDE18D8A4EE
:100850002CEF04F02EEF04F031EF04F00001C34B55
:10086000C42B000E0001C66F000EC56F0001C6BF8D
:1008700043EF04F0C65109E1020EC55DD8A043EF75
:1008800004F045EF04F047EF04F093EF04F0BAC032
:10089000B4F0BBC0B5F0000E0001B76F150EB66F17
:1008A00085EC12F0600E0001BE6F000EBF6F150EDA
:1008B000BE27000EBF230001B4510001BE27000176
:1008C000B5510001BF230001BC510001BE2700014A
:1008D000BD510001BF230001C5510001BE25D96EE5
:1008E0000001C6510001BF21DA6E020EDE18D8A445
:1008F0007CEF04F07EEF04F081EF04F00001C34BC5
:10090000C42B0001C54BC62B0001C6BF91EF04F0FC
:10091000C65109E1020EC55DD8A091EF04F093EF36
:1009200004F047EF04F00001BA51BB11D8A49BEFCB
:1009300004F09DEF04F03CEF05F0140E0001BC192B
:10094000BD11D8A4A6EF04F0A8EF04F03CEF05F029
:10095000BAC0B4F0BBC0B5F0000E0001B76F150E01
:10096000B66F85EC12F0FF0E0001BE6FFF0EBF6F79
:10097000600EC06F000EC16FBE51C027BF51C123B2
:100980000001B4510001C0270001B5510001C1238D
:100990000001BC510001C025D96E0001BD5100010C
:1009A000C121DA6E020EDE18D8A4D9EF04F0DBEF15
:1009B00004F0DEEF04F00001C34BC42B0001C76953
:1009C000C8690001C8BFEDEF04F0C85108E1C705D0
:1009D000D8A0EDEF04F0EFEF04F0F1EF04F03CEFFE
:1009E00005F0BAC0B4F0BBC0B5F0000E0001B76F9F
:1009F000150EB66F85EC12F0600E0001BE6F000E92
:100A0000BF6F150EBE27000EBF230001B4510001B9
:100A1000BE270001B5510001BF230001BC510001F8
:100A2000BE270001BD510001BF230001C7510001D5
:100A3000BE25D96E0001C8510001BF21DA6E020E39
:100A4000DE18D8A426EF05F028EF05F02BEF05F00F
:100A50000001C34BC42B0001C74BC82B0001C8BF0A
:100A60003AEF05F0C85108E1C705D8A03AEF05F004
:100A70003CEF05F0F1EF04F00001BA51BB11D8A42E
:100A800044EF05F046EF05F058EF06F00001BDBF5A
:100A900055EF05F0BD5107E1140EBC5DD8B053EF22
:100AA00005F055EF05F058EF06F00001BDBF61EF0E
:100AB00005F0BD5108E1BC05D8A061EF05F063EF7A
:100AC00005F058EF06F00001C769C8690001C8BF0A
:100AD00073EF05F0C85109E1020EC75DD8A073EFAE
:100AE00005F075EF05F077EF05F0C1EF05F0BAC03E
:100AF000B4F0BBC0B5F0000E0001B76F150EB66FB5
:100B000085EC12F0600E0001BE6F000EBF6F000199
:100B1000B4510001BE270001B5510001BF230001FF
:100B2000BC510001BE270001BD510001BF230001DF
:100B3000C7510001BE25D96E0001C8510001BF2177
:100B4000DA6E020EDE18D8A4A8EF05F0AAEF05F0C1
:100B5000ADEF05F00001C34BC42B0001C74BC82B00
:100B6000C74BC82B0001C8BFBFEF05F0C85109E152
:100B7000020EC75DD8A0BFEF05F0C1EF05F077EF1B
:100B800005F0000E0001C86F010EC76F0001C8BF5D
:100B9000D3EF05F0C85109E1020EC75DD8A0D3EF2D
:100BA00005F0D5EF05F0D7EF05F058EF06F000019E
:100BB000C569C6690001C6BFE7EF05F0C65109E186
:100BC000020EC55DD8A0E7EF05F0E9EF05F0EBEF09
:100BD00005F046EF06F0BAC0B4F0BBC0B5F0000EA9
:100BE0000001B76F150EB66F85EC12F0600E0001B4
:100BF000BE6F000EBF6F0001B4510001BE2700019F
:100C0000B5510001BF23C7C0B4F0C8C0B5F0000E95
:100C10000001B76F150EB66F85EC12F00001B451EC
:100C20000001BE270001B5510001BF230001BC51E6
:100C30000001BE270001BD510001BF230001C551C5
:100C40000001BE25D96E0001C6510001BF21DA6E38
:100C5000020EDE18D8A42FEF06F031EF06F034EFC5
:100C600006F00001C34BC42B0001C54BC62B00018D
:100C7000C6BF44EF06F0C65109E1020EC55DD8A01B
:100C800044EF06F046EF06F0EBEF05F00001C74B2E
:100C9000C82B0001C8BF56EF06F0C85109E1020E8B
:100CA000C75DD8A056EF06F058EF06F0D7EF05F075
:100CB000030E0001BA19BB11D8A461EF06F063EF6F
:100CC00006F00CEF07F00001BC51BD11D8A46BEF8A
:100CD00006F06DEF06F00CEF07F0BAC0B4F0BBC041
:100CE000B5F0000E0001B76F150EB66F85EC12F06F
:100CF000EB0E0001BE6FFF0EBF6F600EC06F000EE7
:100D0000C16FBE51C027BF51C1230001B4510001C2
:100D1000C0270001B5510001C1230001BC510001F1
:100D2000C025D96E0001BD510001C121DA6E020E4D
:100D3000DE18D8A49EEF06F0A0EF06F0A3EF06F0B1
:100D40000001C34BC42B0001C769C8690001C8BFBB
:100D5000B2EF06F0C85108E1C705D8A0B2EF06F01F
:100D6000B4EF06F0B6EF06F00CEF07F0BAC0B4F03F
:100D7000BBC0B5F0000E0001B76F150EB66F85EC65
:100D800012F0600E0001BE6F000EBF6F010EBE2795
:100D9000000EBF230001B4510001BE270001B55170
:100DA0000001BF23C7C0B4F0C8C0B5F0000E0001F9
:100DB000B76F150EB66F85EC12F00001B45100014B
:100DC000BE270001B5510001BF230001BC51000145
:100DD000BE25D96E0001BD510001BF21DA6E020EA1
:100DE000DE18D8A4F6EF06F0F8EF06F0FBEF06F0F9
:100DF0000001C34BC42B0001C74BC82B0001C8BF67
:100E00000AEF07F0C85108E1C705D8A00AEF07F0BC
:100E10000CEF07F0B6EF06F0030E0001BA19BB1194
:100E2000D8A415EF07F017EF07F0BAEF07F0140E8C
:100E30000001BC19BD11D8A420EF07F022EF07F084
:100E4000BAEF07F00001C769C8690001C8BF31EFF8
:100E500007F0C85108E1C705D8A031EF07F033EF1C
:100E600007F035EF07F084EF07F0BAC0B4F0BBC06D
:100E7000B5F0000E0001B76F150EB66F85EC12F0DD
:100E8000EB0E0001BE6FFF0EBF6F600EC06F000E55
:100E9000C16FBE51C027BF51C1230001B451000131
:100EA000C0270001B5510001C1230001BC51000160
:100EB000C0270001BD510001C1230001C75100013D
:100EC000C025D96E0001C8510001C121DA6E020EA1
:100ED000DE18D8A46EEF07F070EF07F073EF07F09D
:100EE0000001C34BC42B0001C74BC82B0001C8BF76
:100EF00082EF07F0C85108E1C705D8A082EF07F0DC
:100F000084EF07F035EF07F0BAC0B4F0BBC0B5F01E
:100F1000000E0001B76F150EB66F85EC12F0FF0ED4
:100F20000001BE6FFF0EBF6F600EC06F000EC16F7D
:100F3000BE51C027BF51C1230001B4510001C027D9
:100F40000001B5510001C1230001BC510001C025C1
:100F5000D96E0001BD510001C121DA6E020EDE180A
:100F6000D8A4B5EF07F0B7EF07F0BAEF07F000012C
:100F7000C34BC42B030E0001BA19BB11D8A4C3EF95
:100F800007F0C5EF07F0A4EF08F00001BDBFD4EFF4
:100F900007F0BD5107E1140EBC5DD8B0D2EF07F0E9
:100FA000D4EF07F0A4EF08F00001BDBFE0EF07F0B9
:100FB000BD5108E1BC05D8A0E0EF07F0E2EF07F073
:100FC000A4EF08F00001C569C6690001C6BFF2EFD1
:100FD00007F0C65109E1020EC55DD8A0F2EF07F097
:100FE000F4EF07F0F6EF07F046EF08F0BAC0B4F000
:100FF000BBC0B5F0000E0001B76F150EB66F85ECE3
:1010000012F0EB0E0001BE6FFF0EBF6F600EC06FDF
:10101000000EC16FBE51C027BF51C1230001B451A2
:101020000001C0270001B5510001C1230001BC51DE
:101030000001C0270001BD510001C1230001C551BD
:101040000001C025D96E0001C6510001C121DA6E30
:10105000020EDE18D8A42FEF08F031EF08F034EFBD
:1010600008F00001C34BC42B0001C54BC62B000187
:10107000C6BF44EF08F0C65109E1020EC55DD8A015
:1010800044EF08F046EF08F0F6EF07F00001C769FB
:10109000C8690001C8BF56EF08F0C85109E1020E47
:1010A000C75DD8A056EF08F058EF08F05AEF08F0E7
:1010B000A4EF08F0BAC0B4F0BBC0B5F0000E000158
:1010C000B76F150EB66F85EC12F0600E0001BE6FA3
:1010D000000EBF6F0001B4510001BE270001B551E1
:1010E0000001BF230001BC510001BE270001BD511A
:1010F0000001BF230001C7510001BE25D96E0001C8
:10110000C8510001BF21DA6E020EDE18D8A48BEFA1
:1011100008F08DEF08F090EF08F00001C34BC42BEE
:101120000001C74BC82BC74BC82B0001C8BFA2EF9B
:1011300008F0C85109E1020EC75DD8A0A2EF08F07F
:10114000A4EF08F05AEF08F00001C35112000001AB
:10115000C16F000E0001C56F000EC46F000E0001CC
:10116000C06F000EBF6F0001C469C5690001C5BF33
:10117000C3EF08F0C55109E1020EC45DD8A0C3EF6A
:1011800008F0C5EF08F0C7EF08F007EF0AF000011C
:10119000BA51D8A4CEEF08F0D0EF08F0E0EF08F095
:1011A0000001C42906E1C529D8A4D9EF08F0DBEF76
:1011B00008F0E0EF08F0000E0001C56F000EC46FEC
:1011C0000001C269C3690001C3BFF0EF08F0C35159
:1011D00009E1020EC25DD8A0F0EF08F0F2EF08F0CE
:1011E000F4EF08F0DCEF09F00001C151D8A4FBEFE7
:1011F00008F0FDEF08F00DEF09F00001C22906E14B
:10120000C329D8A406EF09F008EF09F00DEF09F0A3
:10121000000E0001C36F000EC26FC4C0B4F0C5C0A1
:10122000B5F0000E0001B76F150EB66F85EC12F029
:101230000001BA51150D600E0001BB6F000EBC6FAE
:10124000F350BB27F450BC230001B4510001BB276D
:101250000001B5510001BC230001C1510001BB27B1
:10126000000EBC230001C2510001BB25D96E000154
:10127000C3510001BC21DA6EC4C0B4F0C5C0B5F0E2
:10128000000E0001B76F150EB66F85EC12F000016D
:10129000BA51150D000E0001BD6F010EBE6FF35067
:1012A000BD27F450BE230001B4510001BD27000149
:1012B000B5510001BE230001C1510001BD27000E40
:1012C000BE230001C2510001BD25E16E0001C351E2
:1012D0000001BE21E26EDFCFE7FF0001BA5100013D
:1012E000C4250001BB6FBB290001B76F0001C151CC
:1012F0000001C2250001BC6FBC29A2EC10F0C4C0E3
:10130000B4F0C5C0B5F0000E0001B76F150EB66F92
:1013100085EC12F00001BA51150D000E0001BB6FF3
:10132000010EBC6FF350BB27F450BC230001B45135
:101330000001BB270001B5510001BC230001C151D0
:101340000001BB27000EBC230001C2510001BB25D8
:10135000D96E0001C3510001BC21DA6EDF50D6EC1A
:1013600011F0130E0001C119D8A4B9EF09F0BBEFB9
:1013700009F0CAEF09F00001C251C311D8A4C3EFAC
:1013800009F0C5EF09F0CAEF09F0000E0001C36FC4
:10139000010EC26F0001C24BC32B0001C3BFDAEFC5
:1013A00009F0C35109E1020EC25DD8A0DAEF09F0DD
:1013B000DCEF09F0F4EF08F0030E0001BA19D8A42D
:1013C000E4EF09F0E6EF09F0F5EF09F00001C45190
:1013D000C511D8A4EEEF09F0F0EF09F0F5EF09F030
:1013E000000E0001C56F010EC46F0001C44BC52B78
:1013F0000001C5BF05EF0AF0C55109E1020EC45D49
:10140000D8A005EF0AF007EF0AF0C7EF08F01200C6
:10141000000E0001CD6F000ECC6F000E0001CF6FEB
:10142000000ECE6F0001CFBF1FEF0AF0CF5109E1D0
:10143000040ECE5DD8A01FEF0AF021EF0AF023EFD3
:101440000AF0FAEF0AF0000E0001D16F000ED06F23
:101450000001D1BF35EF0AF0D15109E1140ED05D82
:10146000D8A035EF0AF037EF0AF039EF0AF0E8EFCD
:101470000AF0CEC0B4F0CFC0B5F0000E0001B76FD7
:10148000150EB66F85EC12F0600E0001C96F000EEC
:10149000CA6F0001B4510001C9270001B551000114
:1014A000CA230001D0510001C925D96E0001D151D4
:1014B0000001CA21DA6E020EDE18D8B462EF0AF01B
:1014C00064EF0AF0D6EF0AF0CEC0BAF0CFC0BBF09E
:1014D000D0C0BCF0D1C0BDF00DEC03F00001C96F6D
:1014E000C9510001CC6FCD6B0001CC51CD11D8A4F6
:1014F0007CEF0AF07EEF0AF0A2EF0AF0CEC0B4F063
:10150000CFC0B5F0000E0001B76F150EB66F85ECB9
:1015100012F0600E0001C96F000ECA6F0001B451D5
:101520000001C9270001B5510001CA230001D051B3
:101530000001C925D96E0001D1510001CA21DA6E1E
:10154000200EDF6E0001CDBFAEEF0AF0CD5108E1F5
:10155000CC05D8A0AEEF0AF0B0EF0AF0D6EF0AF053
:10156000CEC0B4F0CFC0B5F0000E0001B76F150EBD
:10157000B66F85EC12F0600E0001C96F000ECA6FE5
:101580000001B4510001C9270001B5510001CA236F
:101590000001D0510001C925D96E0001D1510001CF
:1015A000CA21DA6E0001CC51300FDF6E0001D04B42
:1015B000D12B0001D1BFE6EF0AF0D15109E1140EA1
:1015C000D05DD8A0E6EF0AF0E8EF0AF039EF0AF0B4
:1015D0000001CE4BCF2B0001CFBFF8EF0AF0CF5167
:1015E00009E1040ECE5DD8A0F8EF0AF0FAEF0AF098
:1015F00023EF0AF01200000E0001CD6F000E000173
:10160000CE6F000E0001CF6F000E0001D16F000EF3
:10161000D06F0001D1BF16EF0BF0D15109E1040EDC
:10162000D05DD8A016EF0BF018EF0BF01AEF0BF00F
:10163000CCEF0BF0000E0001D36F000ED26F000153
:10164000D3BF2CEF0BF0D35109E1140ED25DD8A01B
:101650002CEF0BF02EEF0BF030EF0BF066EF0BF0F2
:10166000D0C0B4F0D1C0B5F0000E0001B76F150EB8
:10167000B66F85EC12F0600E0001CA6F000ECB6FE2
:101680000001B4510001CA270001B5510001CB236C
:101690000001D2510001CA25D96E0001D3510001C9
:1016A000CB21DA6E200EDF6E0001D24BD32B00016E
:1016B000D3BF64EF0BF0D35109E1140ED25DD8A073
:1016C00064EF0BF066EF0BF030EF0BF00001D04B46
:1016D000D12B0001D1BF76EF0BF0D15109E1040EFF
:1016E000D05DD8A076EF0BF078EF0BF01AEF0BF08F
:1016F000CCEF0BF0ABEC11F0C0C0C2F0C1C0C3F036
:10170000000E0001C56F140EC46FA7EC0FF00001AE
:10171000C2510001CD6FABEC11F00001C051030BC1
:101720000001CE6F0001CE51150D600E0001CA6F91
:10173000000ECB6FF350CA27F450CB230001CD51DC
:101740000001CA25D96E0001000E0001CB21DA6E1E
:10175000200EDE18D8A4AFEF0BF0B1EF0BF0CCEFFA
:101760000BF00001CE51150D600E0001CA6F000E86
:10177000CB6FF350CA27F450CB230001CD510001A9
:10178000CA25D96E0001000E0001CB21DA6E020ECF
:10179000DF6E0001CF29CF6F0001CF510001CA6F6A
:1017A000CB6B0001C8510001CA1909E10001C95100
:1017B0000001CB19D8A4DFEF0BF0E1EF0BF07AEFCB
:1017C0000BF012000001CC6F0001CC05CC6F0001C2
:1017D000C605C66F010E0001CB6F0001C651150D85
:1017E000600E0001C76F000EC86FF350C727F4509A
:1017F000C8230001CC510001C725D96E0001000E9D
:101800000001C821DA6E020EDE18D8A40AEF0CF02F
:101810000CEF0CF011EF0CF0000E0001CB6FA4EFF9
:101820000CF00001C651150D600E0001C76F000ECF
:10183000C86FF350C727F450C8230001CC510001F2
:10184000C725D96E0001000E0001C821DA6E020E14
:10185000DE18D8B42EEF0CF030EF0CF05AEF0CF08D
:101860000001C651150D600E0001C76F000EC86F54
:10187000F350C727F450C8230001CC510001C725FD
:10188000D96E0001000E0001C821DA6E200EDE18AC
:10189000D8A44DEF0CF04FEF0CF05AEF0CF0010E06
:1018A0000001CB6FC6C0BAF00001CC51A7EC08F024
:1018B000A4EF0CF0010E0001CB6F0001C651150D15
:1018C000600E0001C76F000EC86FF350C727F450B9
:1018D000C8230001CC510001C725D96E0001000EBC
:1018E0000001C821DA6E0001C651150D000E00017D
:1018F000C96F010ECA6FF350C927F450CA23000103
:10190000CC510001C925E16E0001000E0001CA2181
:10191000E26EDFCFE7FF0001C651150D000E00019A
:10192000C76F010EC86FF350C727F450C8230001DA
:10193000CC510001C725D96E0001000E0001C8215D
:10194000DA6EDF50D6EC11F00001CB511200060E1A
:101950005BEC12F00001BD6FDC0EBD65B2EF0CF068
:10196000B4EF0CF0D5EF0CF0B9C0D9FFBAC0DAFF74
:10197000DF500001BD6FBD29B9C0D9FFBAC0DAFF81
:10198000DF6EB9C0D9FFBAC0DAFF140EDF64CBEF47
:101990000CF0CDEF0CF001EF0DF0B9C0D9FFBAC0DB
:1019A000DAFF010EDF6E01EF0DF0060E5BEC12F0B8
:1019B0000001BD6F6E0EBD61E0EF0CF0E2EF0CF0C8
:1019C00001EF0DF0B9C0D9FFBAC0DAFFDF50000156
:1019D000BD6FBD05B9C0D9FFBAC0DAFFDF6EB9C0AF
:1019E000D9FFBAC0DAFFDF50D8A4F9EF0CF0FBEF53
:1019F0000CF001EF0DF0B9C0D9FFBAC0DAFF140E38
:101A0000DF6E070E5BEC12F00001BD6F6E0EBD6164
:101A10000CEF0DF00EEF0DF02FEF0DF0BBC0D9FF66
:101A2000BCC0DAFFDF500001BD6FBD29BBC0D9FFCC
:101A3000BCC0DAFFDF6EBBC0D9FFBCC0DAFF040E4A
:101A4000DF6425EF0DF027EF0DF05BEF0DF0BBC06D
:101A5000D9FFBCC0DAFF010EDF6E5BEF0DF0070EA1
:101A60005BEC12F00001BD6FC80EBD653AEF0DF0E2
:101A70003CEF0DF05BEF0DF0BBC0D9FFBCC0DAFF4F
:101A8000DF500001BD6FBD05BBC0D9FFBCC0DAFF90
:101A9000DF6EBBC0D9FFBCC0DAFFDF50D8A453EF64
:101AA0000DF055EF0DF05BEF0DF0BBC0D9FFBCC0E2
:101AB000DAFF040EDF6EBBC0D9FFBCC0DAFFDF5017
:101AC0000001B76FB9C0D9FFBAC0DAFFDF50A2EC8E
:101AD00010F01200000E0001BD6F000EBC6F00017F
:101AE000BDBF7CEF0DF0BD5109E1040EBC5DD8A077
:101AF0007CEF0DF07EEF0DF080EF0DF01CEF0EF09F
:101B0000000E0001BF6F000EBE6F0001BFBF92EF5D
:101B10000DF0BF5109E1150EBE5DD8A092EF0DF09A
:101B200094EF0DF096EF0DF00AEF0EF00001BDBF3F
:101B3000A5EF0DF0BD5107E1140EBC5DD8B0A3EFC9
:101B40000DF0A5EF0DF0C9EF0DF0BCC0B4F0BDC0B5
:101B5000B5F0000E0001B76F150EB66F85EC12F0F0
:101B6000000E0001BA6F010EBB6F0001B4510001FD
:101B7000BA270001B5510001BB230001BE5100018D
:101B8000BA25D96E0001BF510001BB21DA6E010EEA
:101B9000DF6E140E0001BE19BF11D8A4D2EF0DF0F4
:101BA000D4EF0DF0F8EF0DF0BCC0B4F0BDC0B5F04F
:101BB000000E0001B76F150EB66F85EC12F0000E27
:101BC0000001BA6F010EBB6F0001B4510001BA27CA
:101BD0000001B5510001BB230001BE510001BA252F
:101BE000D96E0001BF510001BB21DA6E000EDF6E1D
:101BF0000001BE4BBF2B0001BFBF08EF0EF0BF516D
:101C000009E1150EBE5DD8A008EF0EF00AEF0EF048
:101C100096EF0DF00001BC4BBD2B0001BDBF1AEFCC
:101C20000EF0BD5109E1040EBC5DD8A01AEF0EF014
:101C30001CEF0EF080EF0DF01200000E0001C16FDE
:101C4000000E0001C06F000EBF6F000E0001C36FD9
:101C5000000EC26F0001C3BF37EF0EF0C35109E1A0
:101C6000040EC25DD8A037EF0EF039EF0EF03BEF57
:101C70000EF0A2EF0EF0000E0001C56F000EC46F53
:101C80000001C5BF4DEF0EF0C55109E1140EC45D52
:101C9000D8A04DEF0EF04FEF0EF051EF0EF090EF99
:101CA0000EF0C2C0B4F0C3C0B5F0000E0001B76FB3
:101CB000150EB66F85EC12F0000E0001BC6F010E20
:101CC000BD6F0001B4510001BC270001B5510001F6
:101CD000BD230001C4510001BC25D96E0001C551CE
:101CE0000001BD21DA6EDE04D8A479EF0EF07BEF9F
:101CF0000EF07EEF0EF00001BF4BC02B0001C44B75
:101D0000C52B0001C5BF8EEF0EF0C55109E1140EC1
:101D1000C45DD8A08EEF0EF090EF0EF051EF0EF0F4
:101D20000001C24BC32B0001C3BFA0EF0EF0C35193
:101D300009E1040EC25DD8A0A0EF0EF0A2EF0EF0F4
:101D40003BEF0EF0BAC0D9FFBBC0DAFF0001BF51B4
:101D5000DE1807E1C051DE18D8A4B1EF0EF0B3EFE2
:101D60000EF0CDEF0EF0C9EC12F0BAC0D9FFBBC037
:101D7000DAFFDECFBCF0DDCFBDF0010E0001BC27E5
:101D8000000EBD23BAC0D9FFBBC0DAFFBCC0DEFF66
:101D9000BDC0DDFF010E0001C16F0001C151120085
:101DA00099EC12F0ACEC12F071EC12F06AEC0DF060
:101DB000D0EC12F0000E0001D66F0C0ED56F0A0E9B
:101DC0000001D76F020E0001D86F010E0001BA6F3B
:101DD000060EBB6FBA51BB11D8A4000EBC6F4DEC00
:101DE0000FF0D5C0C8F0D6C0C9F0FBEC0AF008EC83
:101DF0000AF051EC10F0D70E0001B96F000EBA6F67
:101E0000D80E0001BB6F000EBC6FA7EC0CF081B2C6
:101E10000CEF0FF00EEF0FF040EF0FF0D8C0C6F050
:101E20000001D751E2EC0BF00009D8B41AEF0FF023
:101E30001CEF0FF02BEF0FF0D50E0001BA6F000E64
:101E4000BB6F1DEC0EF0E806D8A429EF0FF02BEFC6
:101E50000FF040EF0FF051EC10F081B232EF0FF0C5
:101E600034EF0FF02DEF0FF06AEC0DF0D5C0C8F095
:101E7000D6C0C9F0FBEC0AF008EC0AF051EC10F007
:101E8000210E0001D46F760EE82EFED7D42FFCD79A
:101E900000F0FBEF0EF000EF00F0000E0001C26F4B
:101EA0007AEF0FF00001C2510001BD6FBE6BBD5152
:101EB0000001BA250001BF6FBE510001BB21000126
:101EC000C06F000E0001BC210001C16FBFC0F6FF52
:101ED000C0C0F7FFC1C0F8FFF8BA03D00800F55042
:101EE00005D0F6CFE9FFF7CFEAFFEF50D6EC11F0BF
:101EF0000001C22B0001C2510001BD6FBE6BBD517C
:101F00000001BA250001BF6FBE510001BB210001D5
:101F1000C06F000E0001BC210001C16FBFC0F6FF01
:101F2000C0C0F7FFC1C0F8FFF8BA03D00800F550F1
:101F300005D0F6CFE9FFF7CFEAFFEF500009D8A4AC
:101F4000A4EF0FF0A6EF0FF052EF0FF01200000E0B
:101F50000001C76FC3BFB1EF0FF0AFEF0FF0B7EFE6
:101F60000FF0C26DC31FD8B0C32B010EC76FC5BF22
:101F7000BEEF0FF0BCEF0FF0C2EF0FF0C46DC51F46
:101F8000D8B0C52BC451C511D8B4C9EF0FF0CBEFF1
:101F90000FF0EFEF0FF0010EC66FD3EF0FF0D890F8
:101FA000C437C537C62BC5AFD8EF0FF0DAEF0FF047
:101FB000CFEF0FF0C451C25DC551C359D8A0E3EFB4
:101FC0000FF0E5EF0FF0E9EF0FF0C451C25FC5511C
:101FD000C35BD890C533C433C62FDAEF0FF0C751B7
:101FE000D8B4F5EF0FF0F7EF0FF0FBEF0FF0C26D85
:101FF000C31FD8B0C32BC2C0C2F0C3C0C3F012000D
:10200000400E11EC11F0000E0001B96F070E000137
:10201000B9650DEF10F00FEF10F011EF10F04EEF6B
:1020200010F0000E0001BA6F070E0001BA651BEF39
:1020300010F01DEF10F01FEF10F043EF10F0000153
:10204000B951080D540E0001B76F010EB86FF3506F
:10205000B727F450B8230001BA510001B725D96E53
:102060000001000E0001B821DA6EDF5041EC12F0E1
:102070000001BA2B070E0001BA6541EF10F043EFE3
:1020800010F01FEF10F00001B92B070E0001B96529
:102090004CEF10F04EEF10F011EF10F0D0EC12F00A
:1020A0001200000E0001C66F000EC56F0001C6BF12
:1020B00063EF10F0C65109E1040EC55DD8A063EFCF
:1020C00010F065EF10F067EF10F0A1EF10F00001D5
:1020D000C5290001B76F010EA2EC10F0C5C0B4F025
:1020E000C6C0B5F0000E0001B76F150EB66F85ECD7
:1020F00012F0000E0001B4250001C36F010E0001B3
:10210000B5210001C46FC3C0BAF0C4C0BBF0000168
:10211000BA51BB11D8A4200EBC6F4DEC0FF00001DA
:10212000C54BC62B0001C6BF9FEF10F0C65109E199
:10213000040EC55DD8A09FEF10F0A1EF10F067EF7F
:1021400010F012000001B86FC6EF10F00001B85196
:102150007F0F800911EC11F0DAEF10F00001B85197
:10216000BF0F800911EC11F0DAEF10F00001B85147
:10217000930F800911EC11F0DAEF10F00001B85163
:10218000D30F800911EC11F0DAEF10F00001B75114
:10219000010AD8B4A6EF10F0030AD8B4AEEF10F0DD
:1021A000010AD8B4B6EF10F0070AD8B4BEEF10F0A9
:1021B000DAEF10F01200000E0001BC6F000EBD6FD0
:1021C000000EBE6F000EBF6FB4A1E9EF10F0EBEF91
:1021D00010F0F3EF10F0B851BC27B951BD23BA513C
:1021E000BE23BB51BF23D890B837B937BA37BB37F6
:1021F000D890B733B633B533B433B451B511B61143
:10220000B711D8A406EF11F008EF11F0E4EF10F0C9
:10221000BCC0B4F0BDC0B5F0BEC0B6F0BFC0B7F032
:1022200012000001B66F00EC12F0000E956E809067
:1022300080920001B6390F0BBBEC12F0D4EC12F017
:102240000001B651BBEC12F0D4EC12F0030EE82EF4
:10225000FED700F00001B605D8B431EF11F033EF2E
:1022600011F03DEF11F0020E0001B619D8A43BEFBA
:1022700011F03DEF11F042EF11F0A60EE82EFED75F
:1022800000F000F00F0E956E00EC12F01200000E40
:10229000956E0D0E0001B66FFB0EE82EFED7B62F21
:1022A000FCD700F000F080908092030EBBEC12F09F
:1022B000D4EC12F0030EE82EFED700F0030EBBECB8
:1022C00012F0D4EC12F0030EE82EFED700F0030E4D
:1022D000BBEC12F0D4EC12F0030EE82EFED700F0A7
:1022E000020EBBEC12F0D4EC12F0030EE82EFED777
:1022F00000F00F0E956E1200420EF66E240EF76E71
:10230000000EF86E01EE54F010EE40F00900F5CF2B
:10231000EEFFE550E150FAE1B60EF66E250EF76ECF
:10232000000EF86E00EED9F010EE04F00900F5CFC3
:10233000EEFFE550E150FAE101EE00F0540EEE6AD6
:10234000E806FDE100EE60F0540EEE6AE806FDE1FD
:102350000001D0EF0EF0D9C0B4F0DAC0B5F0DBC0A8
:10236000B6F0DCC0B7F06D0E0001B86F4E0EB96F5D
:10237000C60EBA6F410EBB6FDBEC10F0B4C0D9F0E3
:10238000B5C0DAF0B6C0DBF0B7C0DCF0390E000142
:10239000D927300EDA23000EDB23000EDC23FF0EDC
:1023A000DB15C06F7F0EDC15C16F12000001B76F27
:1023B0000001B75141EC12F00001B86FEFEF11F0DE
:1023C000C00E11EC11F0FFEF11F0940E11EC11F0B2
:1023D000FFEF11F0D40E11EC11F0FFEF11F000013E
:1023E000B851940AD8B4E0EF11F0540AD8B4EAEF27
:1023F00011F0140AD8B4E5EF11F0FFEF11F012005C
:1024000080908082808400F0D8EC12F00001B46FDC
:10241000B439F00B0001B56F8094808400F0D8ECE3
:1024200012F00001B51380940001B5BF1AEF12F04D
:102430001CEF12F002EF12F080920001B5517F0BF9
:1024400012000804040A111F1100000E0E0E0E0ED9
:102450000E000000040E0E0E040008040E111F10E2
:102460000E0008041F101E101F00040A0E111F107A
:102470000E0008040E010F110F00040A0E010F11C7
:102480000F000001B66F00EC12F0000E956E808018
:1024900080920001B6390F0BBBEC12F0D4EC12F0B5
:1024A0000001B651BBEC12F0D4EC12F00F0E956E99
:1024B00000EC12F012000001B56FB5C0B4F00001DD
:1024C000B447B447C250B419C30BB419C26EC28228
:1024D000C2B26DEF12F06FEF12F068EF12F0C4505D
:1024E000120047EC11F0280E11EC11F00F0E11EC58
:1024F00011F0010E11EC11F0060E11EC11F0800E2E
:1025000011EC11F000EC10F012000001B451B60310
:10251000F3CFB8F0F4CFB9F0B451B703F350B92703
:10252000B551B603F350B927B8C0B4F0B9C0B5F08F
:102530001200000E956E000E7F6E9368000E7E6E88
:10254000000E926E000EC16E7E8EC280C09EC70EBF
:10255000C016F80EC0161200948E948C000EB06E49
:10256000190EAF6EB886AC84AC98AC8AAB88AB8ED3
:10257000000E7E6E12000001B56F83CFB4F0F00E36
:102580000001B4170001B5510F0B0001B411836EA7
:102590001200010E11EC11F0800E11EC11F012007E
:1025A000020E11EC11F01200808400F080941200F1
:0A25B00083500F0B12000100000021
:020000040020DA
:08000000FFFFFFFFFFFFFFFF00
:020000040030CA
:0E000000FF081F1EFF8B81FF0FC00FE00F4097
:00000001FF
