:020000040000FA
:0400000086EF10F087
:10060000004C41423620596F756C69616E20486F0D
:100610007565686F756E6F750000000E0001C46F20
:10062000000EC36F000E0001C86F000EC76F000EF2
:100630000001C66F000EC56F0001BBBF2BEF03F0BA
:10064000BB5107E1030EBA5DD8B029EF03F02BEFE1
:1006500003F0EBEF03F00001BBBF37EF03F0BB513A
:1006600008E1BA05D8A037EF03F039EF03F0EBEF5C
:1006700003F00001BDBF45EF03F0BD5108E1BC052B
:10068000D8A045EF03F047EF03F0EBEF03F00001D4
:10069000BDBF56EF03F0BD5107E1140EBC5DD8B0ED
:1006A00054EF03F056EF03F0EBEF03F00001C769DE
:1006B000C8690001C8BF66EF03F0C85109E1020E26
:1006C000C75DD8A066EF03F068EF03F06AEF03F0B0
:1006D000EBEF03F00001C569C6690001C6BF7AEF00
:1006E00003F0C65109E1020EC55DD8A07AEF03F010
:1006F0007CEF03F07EEF03F0D9EF03F0BAC0B4F063
:10070000BBC0B5F0000E0001B76F150EB66FB3ECAD
:1007100011F0600E0001BE6F000EBF6F0001B451FA
:100720000001BE270001B5510001BF23C7C0B4F0CE
:10073000C8C0B5F0000E0001B76F150EB66FB3EC70
:1007400011F00001B4510001BE270001B5510001B4
:10075000BF230001BC510001BE270001BD510001B3
:10076000BF230001C5510001BE25D96E0001C6514D
:100770000001BF21DA6E020EDE18D8A4C2EF03F02A
:10078000C4EF03F0C7EF03F00001C34BC42B00011B
:10079000C54BC62B0001C6BFD7EF03F0C65109E118
:1007A000020EC55DD8A0D7EF03F0D9EF03F07EEFBE
:1007B00003F00001C74BC82B0001C8BFE9EF03F0ED
:1007C000C85109E1020EC75DD8A0E9EF03F0EBEFD5
:1007D00003F06AEF03F00001BA51BB11D8A4F3EFA4
:1007E00003F0F5EF03F093EF04F00001BC51BD11ED
:1007F000D8A4FDEF03F0FFEF03F093EF04F0BAC0CD
:10080000B4F0BBC0B5F0000E0001B76F150EB66FA7
:10081000B3EC11F0600E0001BE6F000EBF6F010E51
:10082000BE27000EBF230001B4510001BE27000106
:10083000B5510001BF230001BC510001BE25D96E96
:100840000001BD510001BF21DA6E020EDE18D8A4EE
:100850002CEF04F02EEF04F031EF04F00001C34B55
:10086000C42B000E0001C66F000EC56F0001C6BF8D
:1008700043EF04F0C65109E1020EC55DD8A043EF75
:1008800004F045EF04F047EF04F093EF04F0BAC032
:10089000B4F0BBC0B5F0000E0001B76F150EB66F17
:1008A000B3EC11F0600E0001BE6F000EBF6F150EAD
:1008B000BE27000EBF230001B4510001BE27000176
:1008C000B5510001BF230001BC510001BE2700014A
:1008D000BD510001BF230001C5510001BE25D96EE5
:1008E0000001C6510001BF21DA6E020EDE18D8A445
:1008F0007CEF04F07EEF04F081EF04F00001C34BC5
:10090000C42B0001C54BC62B0001C6BF91EF04F0FC
:10091000C65109E1020EC55DD8A091EF04F093EF36
:1009200004F047EF04F00001BA51BB11D8A49BEFCB
:1009300004F09DEF04F0AFEF05F00001BDBFACEF98
:1009400004F0BD5107E1140EBC5DD8B0AAEF04F06D
:10095000ACEF04F0AFEF05F00001BDBFB8EF04F05D
:10096000BD5108E1BC05D8A0B8EF04F0BAEF04F01F
:10097000AFEF05F00001C769C8690001C8BFCAEF41
:1009800004F0C85109E1020EC75DD8A0CAEF04F017
:10099000CCEF04F0CEEF04F018EF05F0BAC0B4F0DD
:1009A000BBC0B5F0000E0001B76F150EB66FB3EC0B
:1009B00011F0600E0001BE6F000EBF6F0001B45158
:1009C0000001BE270001B5510001BF230001BC5149
:1009D0000001BE270001BD510001BF230001C75126
:1009E0000001BE25D96E0001C8510001BF21DA6E99
:1009F000020EDE18D8A4FFEF04F001EF05F004EFBB
:100A000005F00001C34BC42B0001C74BC82BC74BDB
:100A1000C82B0001C8BF16EF05F0C85109E1020E4E
:100A2000C75DD8A016EF05F018EF05F0CEEF04F083
:100A3000000E0001C86F010EC76F0001C8BF2AEF8A
:100A400005F0C85109E1020EC75DD8A02AEF05F0F4
:100A50002CEF05F02EEF05F0AFEF05F00001C569B2
:100A6000C6690001C6BF3EEF05F0C65109E1020E9E
:100A7000C55DD8A03EEF05F040EF05F042EF05F070
:100A80009DEF05F0BAC0B4F0BBC0B5F0000E000198
:100A9000B76F150EB66FB3EC11F0600E0001BE6FAC
:100AA000000EBF6F0001B4510001BE270001B55117
:100AB0000001BF23C7C0B4F0C8C0B5F0000E0001EC
:100AC000B76F150EB66FB3EC11F00001B451000111
:100AD000BE270001B5510001BF230001BC51000138
:100AE000BE270001BD510001BF230001C551000117
:100AF000BE25D96E0001C6510001BF21DA6E020E7B
:100B0000DE18D8A486EF05F088EF05F08BEF05F02E
:100B10000001C34BC42B0001C54BC62B0001C6BF4F
:100B20009BEF05F0C65109E1020EC55DD8A09BEF11
:100B300005F09DEF05F042EF05F00001C74BC82B13
:100B40000001C8BFADEF05F0C85109E1020EC75D55
:100B5000D8A0ADEF05F0AFEF05F02EEF05F00001E6
:100B6000BA51BB11D8A4B7EF05F0B9EF05F058EFB3
:100B700006F0140E0001BC19BD11D8A4C2EF05F097
:100B8000C4EF05F058EF06F0BAC0B4F0BBC0B5F042
:100B9000000E0001B76F150EB66FB3EC11F0FF0E2B
:100BA0000001BE6FFF0EBF6F600EC06F000EC16F01
:100BB000BE51C027BF51C1230001B4510001C0275D
:100BC0000001B5510001C1230001BC510001C02545
:100BD000D96E0001BD510001C121DA6E020EDE188E
:100BE000D8A4F5EF05F0F7EF05F0FAEF05F00001F6
:100BF000C34BC42B0001C769C8690001C8BF09EF16
:100C000006F0C85108E1C705D8A009EF06F00BEFC0
:100C100006F00DEF06F058EF06F0BAC0B4F0BBC016
:100C2000B5F0000E0001B76F150EB66FB3EC11F002
:100C3000600E0001BE6F000EBF6F150EBE27000EC6
:100C4000BF230001B4510001BE270001B5510001CE
:100C5000BF230001BC510001BE270001BD510001AE
:100C6000BF230001C7510001BE25D96E0001C85144
:100C70000001BF21DA6E020EDE18D8A442EF06F0A2
:100C800044EF06F047EF06F00001C34BC42B000110
:100C9000C74BC82B0001C8BF56EF06F0C85108E18A
:100CA000C705D8A056EF06F058EF06F00DEF06F096
:100CB000030E0001BA19BB11D8A461EF06F063EF6F
:100CC00006F00CEF07F00001BC51BD11D8A46BEF8A
:100CD00006F06DEF06F00CEF07F0BAC0B4F0BBC041
:100CE000B5F0000E0001B76F150EB66FB3EC11F042
:100CF000EB0E0001BE6FFF0EBF6F600EC06F000EE7
:100D0000C16FBE51C027BF51C1230001B4510001C2
:100D1000C0270001B5510001C1230001BC510001F1
:100D2000C025D96E0001BD510001C121DA6E020E4D
:100D3000DE18D8A49EEF06F0A0EF06F0A3EF06F0B1
:100D40000001C34BC42B0001C769C8690001C8BFBB
:100D5000B2EF06F0C85108E1C705D8A0B2EF06F01F
:100D6000B4EF06F0B6EF06F00CEF07F0BAC0B4F03F
:100D7000BBC0B5F0000E0001B76F150EB66FB3EC37
:100D800011F0600E0001BE6F000EBF6F010EBE2796
:100D9000000EBF230001B4510001BE270001B55170
:100DA0000001BF23C7C0B4F0C8C0B5F0000E0001F9
:100DB000B76F150EB66FB3EC11F00001B45100011E
:100DC000BE270001B5510001BF230001BC51000145
:100DD000BE25D96E0001BD510001BF21DA6E020EA1
:100DE000DE18D8A4F6EF06F0F8EF06F0FBEF06F0F9
:100DF0000001C34BC42B0001C74BC82B0001C8BF67
:100E00000AEF07F0C85108E1C705D8A00AEF07F0BC
:100E10000CEF07F0B6EF06F0030E0001BA19BB1194
:100E2000D8A415EF07F017EF07F0F6EF07F0000171
:100E3000BDBF26EF07F0BD5107E1140EBC5DD8B071
:100E400024EF07F026EF07F0F6EF07F00001BDBF33
:100E500032EF07F0BD5108E1BC05D8A032EF07F032
:100E600034EF07F0F6EF07F00001C569C66900012D
:100E7000C6BF44EF07F0C65109E1020EC55DD8A018
:100E800044EF07F046EF07F048EF07F098EF07F060
:100E9000BAC0B4F0BBC0B5F0000E0001B76F150EBC
:100EA000B66FB3EC11F0EB0E0001BE6FFF0EBF6F1B
:100EB000600EC06F000EC16FBE51C027BF51C1236D
:100EC0000001B4510001C0270001B5510001C12348
:100ED0000001BC510001C0270001BD510001C12328
:100EE0000001C5510001C025D96E0001C6510001A5
:100EF000C121DA6E020EDE18D8A481EF07F083EF6D
:100F000007F086EF07F00001C34BC42B0001C54B6F
:100F1000C62B0001C6BF96EF07F0C65109E1020ECD
:100F2000C55DD8A096EF07F098EF07F048EF07F0FF
:100F30000001C769C8690001C8BFA8EF07F0C85120
:100F400009E1020EC75DD8A0A8EF07F0AAEF07F0ED
:100F5000ACEF07F0F6EF07F0BAC0B4F0BBC0B5F0E5
:100F6000000E0001B76F150EB66FB3EC11F0600EF6
:100F70000001BE6F000EBF6F0001B4510001BE271B
:100F80000001B5510001BF230001BC510001BE2783
:100F90000001BD510001BF230001C7510001BE2562
:100FA000D96E0001C8510001BF21DA6E020EDE18B1
:100FB000D8A4DDEF07F0DFEF07F0E2EF07F0000164
:100FC000C34BC42B0001C74BC82BC74BC82B000118
:100FD000C8BFF4EF07F0C85109E1020EC75DD8A001
:100FE000F4EF07F0F6EF07F0ACEF07F0030E0001A7
:100FF000BA19BB11D8A4FFEF07F001EF08F0A4EF76
:1010000008F0140E0001BC19BD11D8A40AEF08F0B5
:101010000CEF08F0A4EF08F00001C769C8690001EF
:10102000C8BF1BEF08F0C85108E1C705D8A01BEFE7
:1010300008F01DEF08F01FEF08F06EEF08F0BAC0DF
:10104000B4F0BBC0B5F0000E0001B76F150EB66F5F
:10105000B3EC11F0EB0E0001BE6FFF0EBF6F600E20
:10106000C06F000EC16FBE51C027BF51C123000128
:10107000B4510001C0270001B5510001C123000196
:10108000BC510001C0270001BD510001C123000176
:10109000C7510001C025D96E0001C8510001C1210E
:1010A000DA6E020EDE18D8A458EF08F05AEF08F0F6
:1010B0005DEF08F00001C34BC42B0001C74BC82BE8
:1010C0000001C8BF6CEF08F0C85108E1C705D8A0FF
:1010D0006CEF08F06EEF08F01FEF08F0BAC0B4F044
:1010E000BBC0B5F0000E0001B76F150EB66FB3ECC4
:1010F00011F0FF0E0001BE6FFF0EBF6F600EC06FDC
:10110000000EC16FBE51C027BF51C1230001B451B1
:101110000001C0270001B5510001C1230001BC51ED
:101120000001C025D96E0001BD510001C121DA6E58
:10113000020EDE18D8A49FEF08F0A1EF08F0A4EF8C
:1011400008F00001C34BC42B0001C3511200000181
:10115000D86F000E0001D56F000ED46F000E000195
:10116000D76F000ED66F000E0001D36F000ED26F46
:10117000C9C0BAF00001BB6BD8C0BCF00001BD6BA8
:101180000DEC03F00001CA6FCA510001D26FD36B9E
:101190000001D251D311D8A4D0EF08F0D2EF08F05B
:1011A000EAEF08F00001C951150D000E0001CA6FE9
:1011B000010ECB6FF350CA27F450CB230001D85156
:1011C0000001CA25D96E0001000E0001CB21DA6EA4
:1011D000200EDF6E0001D3BFF6EF08F0D35108E117
:1011E000D205D8A0F6EF08F0F8EF08F00EEF0AF0FD
:1011F0000001C951150D000E0001CA6F010ECB6F21
:10120000F350CA27F450CB230001D8510001CA255E
:10121000D96E0001000E0001CB21DA6E0001D2511F
:10122000300FDF6E0001D469D5690001D5BF22EF10
:1012300009F0D55109E1020ED45DD8A022EF09F0E2
:1012400024EF09F026EF09F00EEF0AF00001D6694D
:10125000D7690001D7BF36EF09F0D75109E1020E77
:10126000D65DD8A036EF09F038EF09F03AEF09F073
:10127000FCEF09F0D4C0B4F0D5C0B5F0000E000109
:10128000B76F150EB66FB3EC11F00001C951150D13
:10129000600E0001CA6F000ECB6FF350CA27F450E6
:1012A000CB230001B4510001CA270001B551000150
:1012B000CB230001D8510001CA27000ECB23000127
:1012C000D6510001CA25D96E0001D7510001CB21AA
:1012D000DA6EDF50CC6FCD6B0001D2510001CC191A
:1012E0000BE10001D3510001CD19D8B47AEF09F018
:1012F0007CEF09F0EAEF09F0D4C0B4F0D5C0B5F046
:10130000000E0001B76F150EB66FB3EC11F00001BF
:10131000C951150D000E0001CA6F010ECB6FF350BD
:10132000CA27F450CB230001B4510001CA270001A1
:10133000B5510001CB230001D8510001CA27000E8E
:10134000CB230001D6510001CA25D96E0001D75127
:101350000001CB21DA6EDF50CC6FCD6BCCC0BAF080
:10136000CDC0BBF0D4C0B4F0D5C0B5F0000E0001C4
:10137000B76F150EB66FB3EC11F00001C951150D22
:10138000600E0001CE6F000ECF6FF350CE27F450E9
:10139000CF230001B4510001CE270001B551000157
:1013A000CF230001D8510001CE27000ECF2300012A
:1013B000D6510001CE25D96E0001D7510001CF21B1
:1013C000DA6EDF50D06FD16BD0C0BCF0D1C0BDF0B1
:1013D0000AEC11F00001D64BD72B0001D7BFFAEF72
:1013E00009F0D75109E1020ED65DD8A0FAEF09F055
:1013F000FCEF09F03AEF09F00001D44BD52B0001C6
:10140000D5BF0CEF0AF0D55109E1020ED45DD8A08A
:101410000CEF0AF00EEF0AF026EF09F01200000EB2
:101420000001CF6F000ECE6F000E0001D16F000ED5
:10143000D06F000E0001CD6F000ECC6F000E0001CA
:10144000CF6F000ECE6F0001CFBF30EF0AF0CF514B
:1014500009E1040ECE5DD8A030EF0AF032EF0AF0B9
:1014600034EF0AF00BEF0BF0000E0001D16F000E0D
:10147000D06F0001D1BF46EF0AF0D15109E1140E3F
:10148000D05DD8A046EF0AF048EF0AF04AEF0AF024
:10149000F9EF0AF0CEC0B4F0CFC0B5F0000E0001F5
:1014A000B76F150EB66FB3EC11F0600E0001C96F87
:1014B000000ECA6F0001B4510001C9270001B551E7
:1014C0000001CA230001D0510001C925D96E0001D5
:1014D000D1510001CA21DA6E020EDE18D8B473EFC2
:1014E0000AF075EF0AF0E7EF0AF0CEC0BAF0CFC00D
:1014F000BBF0D0C0BCF0D1C0BDF00DEC03F00001DA
:10150000C96FC9510001CC6FCD6B0001CC51CD1119
:10151000D8A48DEF0AF08FEF0AF0B3EF0AF0CEC037
:10152000B4F0CFC0B5F0000E0001B76F150EB66F66
:10153000B3EC11F0600E0001C96F000ECA6F00011C
:10154000B4510001C9270001B5510001CA230001AF
:10155000D0510001C925D96E0001D1510001CA2125
:10156000DA6E200EDF6E0001CDBFBFEF0AF0CD5165
:1015700008E1CC05D8A0BFEF0AF0C1EF0AF0E7EF11
:101580000AF0CEC0B4F0CFC0B5F0000E0001B76FC6
:10159000150EB66FB3EC11F0600E0001C96F000EAE
:1015A000CA6F0001B4510001C9270001B551000103
:1015B000CA230001D0510001C925D96E0001D151C3
:1015C0000001CA21DA6E0001CC51300FDF6E00013C
:1015D000D04BD12B0001D1BFF7EF0AF0D15109E177
:1015E000140ED05DD8A0F7EF0AF0F9EF0AF04AEF39
:1015F0000AF00001CE4BCF2B0001CFBF09EF0BF05B
:10160000CF5109E1040ECE5DD8A009EF0BF00BEF2E
:101610000BF034EF0AF01200000E0001CE6F000E46
:10162000CD6F000E0001D06F000ECF6F000E0001D5
:10163000D16F000E0001D26F000E0001D36F000EBB
:101640000001D56F000ED46F0001D5BF31EF0BF054
:10165000D55109E1040ED45DD8A031EF0BF033EF82
:101660000BF035EF0BF0E7EF0BF0000E0001D76F3A
:10167000000ED66F0001D7BF47EF0BF0D75109E13D
:10168000140ED65DD8A047EF0BF049EF0BF04BEFEF
:101690000BF081EF0BF0D4C0B4F0D5C0B5F0000E64
:1016A0000001B76F150EB66FB3EC11F0600E0001BC
:1016B000CA6F000ECB6F0001B4510001CA270001B0
:1016C000B5510001CB230001D6510001CA25D96EC6
:1016D0000001D7510001CB21DA6E200EDF6E000130
:1016E000D64BD72B0001D7BF7FEF0BF0D75109E1C5
:1016F000140ED65DD8A07FEF0BF081EF0BF04BEF0F
:101700000BF00001D44BD52B0001D5BF91EF0BF0AE
:10171000D55109E1040ED45DD8A091EF0BF093EF01
:101720000BF035EF0BF0E7EF0BF0B5EC10F0C0C0AD
:10173000C2F0C1C0C3F0000E0001C56F140EC46F2B
:101740005BEC0EF00001C2510001D16FB5EC10F05E
:101750000001C051030B0001D26F0001D251150DE1
:10176000600E0001CA6F000ECB6FF350CA27F45011
:10177000CB230001D1510001CA25D96E0001000E12
:101780000001CB21DA6E200EDE18D8A4CAEF0BF0D0
:10179000CCEF0BF0E7EF0BF00001D251150D600E0E
:1017A0000001CA6F000ECB6FF350CA27F450CB2351
:1017B0000001D1510001CA25D96E0001000E0001BF
:1017C000CB21DA6E020EDF6E0001D329D36F000148
:1017D000D3510001CA6FCB6B0001C8510001CA1977
:1017E00009E10001C9510001CB19D8A4FAEF0BF0AF
:1017F000FCEF0BF095EF0BF01200BBC0D9FFBCC0A3
:10180000DAFFDF500001B76FB9C0D9FFBAC0DAFF05
:10181000DF50ACEC0FF0070E89EC11F00001BD6F4A
:101820006E0EBD6116EF0CF018EF0CF039EF0CF0F6
:10183000B9C0D9FFBAC0DAFFDF500001BD6FBD29C2
:10184000B9C0D9FFBAC0DAFFDF6EB9C0D9FFBAC0DC
:10185000DAFF140EDF642FEF0CF031EF0CF065EFC0
:101860000CF0B9C0D9FFBAC0DAFF010EDF6E65EF28
:101870000CF0070E89EC11F00001BD6FC80EBD65BC
:1018800044EF0CF046EF0CF065EF0CF0B9C0D9FF57
:10189000BAC0DAFFDF500001BD6FBD05B9C0D9FF86
:1018A000BAC0DAFFDF6EB9C0D9FFBAC0DAFFDF50C5
:1018B000D8A45DEF0CF05FEF0CF065EF0CF0B9C051
:1018C000D9FFBAC0DAFF140EDF6E060E89EC11F0F4
:1018D0000001BD6F6E0EBD6170EF0CF072EF0CF089
:1018E00093EF0CF0BBC0D9FFBCC0DAFFDF500001A2
:1018F000BD6FBD05BBC0D9FFBCC0DAFFDF6EBBC08A
:10190000D9FFBCC0DAFFDF50D8A489EF0CF08BEF11
:101910000CF0BFEF0CF0BBC0D9FFBCC0DAFF040E67
:10192000DF6EBFEF0CF0070E89EC11F00001BD6F08
:10193000C80EBD659EEF0CF0A0EF0CF0BFEF0CF0F1
:10194000BBC0D9FFBCC0DAFFDF500001BD6FBD29AD
:10195000BBC0D9FFBCC0DAFFDF6EBBC0D9FFBCC0C3
:10196000DAFF040EDF64B7EF0CF0B9EF0CF0BFEF55
:101970000CF0BBC0D9FFBCC0DAFF010EDF6EBBC0EC
:10198000D9FFBCC0DAFFDF500001B76FB9C0D9FF83
:10199000BAC0DAFFDF50ACEC0FF01200000E00010D
:1019A000BD6F000EBC6F000E0001BF6F000EBE6F5A
:1019B000000E0001BD6F000EBC6F0001BDBFEAEF5D
:1019C0000CF0BD5109E1040EBC5DD8A0EAEF0CF0AB
:1019D000ECEF0CF0EEEF0CF08AEF0DF0000E0001D2
:1019E000BF6F000EBE6F0001BFBF00EF0DF0BF5113
:1019F00009E1150EBE5DD8A000EF0DF002EF0DF06D
:101A000004EF0DF078EF0DF00001BDBF13EF0DF006
:101A1000BD5107E1140EBC5DD8B011EF0DF013EF0E
:101A20000DF037EF0DF0BCC0B4F0BDC0B5F0000E46
:101A30000001B76F150EB66FB3EC11F0000E000188
:101A4000BA6F010EBB6F0001B4510001BA2700014B
:101A5000B5510001BB230001BE510001BA25D96E6A
:101A60000001BF510001BB21DA6E010EDF6E140EC2
:101A70000001BE19BF11D8A440EF0DF042EF0DF0E8
:101A800066EF0DF0BCC0B4F0BDC0B5F0000E0001B3
:101A9000B76F150EB66FB3EC11F0000E0001BA6F00
:101AA000010EBB6F0001B4510001BA270001B5510E
:101AB0000001BB230001BE510001BA25D96E00010F
:101AC000BF510001BB21DA6E000EDF6E0001BE4B7C
:101AD000BF2B0001BFBF76EF0DF0BF5109E1150E1E
:101AE000BE5DD8A076EF0DF078EF0DF004EF0DF0AD
:101AF0000001BC4BBD2B0001BDBF88EF0DF0BD51F7
:101B000009E1040EBC5DD8A088EF0DF08AEF0DF05E
:101B1000EEEF0CF01200C7EC11F0D7EC11F09FECD7
:101B200011F0CEEC0CF0F4EC11F0000E0001E16FBE
:101B30000C0EE06F010E0001E26F010E0001E36F79
:101B4000010E0001BA6F060EBB6FBA51BB11D8A4CB
:101B5000000EBC6F01EC0EF0E0C0C8F0E1C0C9F0AF
:101B60000CEC0BF00FEC0AF0B4EC0EF0E20E0001FE
:101B7000B96F000EBA6FE30E0001BB6F000EBC6FB1
:101B8000FDEC0BF081A2C7EF0DF0C9EF0DF0F4EF03
:101B90000DF0E3C0D9F00001E25109EC0FF00009AB
:101BA000D8B4D5EF0DF0D7EF0DF0E5EF0DF0E0C0B4
:101BB000B4F0E1C0B5F001EC12F00009D8A4E3EFF5
:101BC0000DF0E5EF0DF0E7EF0DF0B4EC0EF081B2A3
:101BD000ECEF0DF0EEEF0DF0E7EF0DF0CEEC0CF0CA
:101BE0000FEC0AF0B4EC0EF0210E0001DF6F760E60
:101BF000E82EFED7DF2FFCD700F0B6EF0DF000EF98
:101C000000F0000E0001C26F2EEF0EF00001C25175
:101C10000001BD6FBE6BBD510001BA250001BF6F51
:101C2000BE510001BB210001C06F000E0001BC21AC
:101C30000001C16FBFC0F6FFC0C0F7FFC1C0F8FF11
:101C4000F8BA03D00800F55005D0F6CFD9FFF7CF8A
:101C5000DAFFDF50E0EC10F00001C22B0001C251AE
:101C60000001BD6FBE6BBD510001BA250001BF6F01
:101C7000BE510001BB210001C06F000E0001BC215C
:101C80000001C16FBFC0F6FFC0C0F7FFC1C0F8FFC1
:101C9000F8BA03D00800F55005D0F6CFD9FFF7CF3A
:101CA000DAFFDF500009D8A458EF0EF05AEF0EF01B
:101CB00006EF0EF01200000E0001C76FC3BF65EF04
:101CC0000EF063EF0EF06BEF0EF0C26DC31FD8B0D5
:101CD000C32B010EC76FC5BF72EF0EF070EF0EF091
:101CE00076EF0EF0C46DC51FD8B0C52BC451C51119
:101CF000D8B47DEF0EF07FEF0EF0A3EF0EF0010EE3
:101D0000C66F87EF0EF0D890C437C537C62BC5AF66
:101D10008CEF0EF08EEF0EF083EF0EF0C451C25D2B
:101D2000C551C359D8A097EF0EF099EF0EF09DEF73
:101D30000EF0C451C25FC551C35BD890C533C433E4
:101D4000C62F8EEF0EF0C751D8B4A9EF0EF0ABEF4F
:101D50000EF0AFEF0EF0C26DC31FD8B0C32BC2C0E0
:101D6000C2F0C3C0C3F01200000E0001C66F000E27
:101D7000C56F000EC66F000EC56F0001C6BFCAEF6B
:101D80000EF0C65109E1040EC55DD8A0CAEF0EF0F1
:101D9000CCEF0EF0CEEF0EF008EF0FF00001C529EA
:101DA0000001B76F010EACEC0FF0C5C0B4F0C6C0B7
:101DB000B5F0000E0001B76F150EB66FB3EC11F061
:101DC000600E0001B4250001C36F000E0001B521B3
:101DD0000001C46FC3C0BAF0C4C0BBF00001BA5167
:101DE000BB11D8A4200EBC6F01EC0EF00001C54B56
:101DF000C62B0001C6BF06EF0FF0C65109E1040E65
:101E0000C55DD8A006EF0FF008EF0FF0CEEF0EF093
:101E100012000001DE6F010E0001DD6F0001D951DB
:101E2000150D600E0001DA6F000EDB6FF350DA273C
:101E3000F450DB230001DE510001DA25D96E0001E8
:101E4000000E0001DB21DA6E020EDE18D8A42BEFA3
:101E50000FF02DEF0FF030EF0FF0000E0001DD6FEF
:101E60000001D951150D600E0001DA6F000EDB6F15
:101E7000F350DA27F450DB230001DE510001DA25AC
:101E8000D96E0001000E0001DB21DA6E020EDE18B1
:101E9000D8B44DEF0FF04FEF0FF058EF0FF0010EE9
:101EA0000001DD6FD9C0C9F00001DE51A7EC08F0D8
:101EB0000001DD511200400E1BEC10F0000E00017D
:101EC000B96F070E0001B96568EF0FF06AEF0FF008
:101ED0006CEF0FF0A9EF0FF0000E0001BA6F070EC4
:101EE0000001BA6576EF0FF078EF0FF07AEF0FF0A0
:101EF0009EEF0FF00001B951080D540E0001B76FAD
:101F0000010EB86FF350B727F450B8230001BA514F
:101F10000001B725D96E0001000E0001B821DA6E6C
:101F2000DF506FEC11F00001BA2B070E0001BA650B
:101F30009CEF0FF09EEF0FF07AEF0FF00001B92B3E
:101F4000070E0001B965A7EF0FF0A9EF0FF06CEFD6
:101F50000FF0F4EC11F012000001B86FD0EF0FF0A9
:101F60000001B8517F0F80091BEC10F0E4EF0FF077
:101F70000001B851BF0F80091BEC10F0E4EF0FF027
:101F80000001B851930F80091BEC10F0E4EF0FF043
:101F90000001B851D30F80091BEC10F0E4EF0FF0F3
:101FA0000001B751010AD8B4B0EF0FF0030AD8B45A
:101FB000B8EF0FF0010AD8B4C0EF0FF0070AD8B499
:101FC000C8EF0FF0E4EF0FF01200000E0001BC6F3D
:101FD000000EBD6F000EBE6F000EBF6FB4A1F3EF19
:101FE0000FF0F5EF0FF0FDEF0FF0B851BC27B9512E
:101FF000BD23BA51BE23BB51BF23D890B837B937E0
:10200000BA37BB37D890B733B633B533B433B451DE
:10201000B511B611B711D8A410EF10F012EF10F0EF
:10202000EEEF0FF0BCC0B4F0BDC0B5F0BEC0B6F06E
:10203000BFC0B7F012000001B66F2EEC11F0000E19
:10204000956E809080920001B6390F0BE6EC11F08E
:10205000F8EC11F00001B651E6EC11F0F8EC11F0DB
:10206000030EE82EFED700F00001B605D8B43BEF12
:1020700010F03DEF10F047EF10F0020E0001B6191E
:10208000D8A445EF10F047EF10F04CEF10F0A60E7B
:10209000E82EFED700F000F00F0E956E2EEC11F03A
:1020A0001200000E956E0D0E0001B66FFB0EE82EAD
:1020B000FED7B62FFCD700F000F080908092030E80
:1020C000E6EC11F0F8EC11F0030EE82EFED700F06C
:1020D000030EE6EC11F0F8EC11F0030EE82EFED73B
:1020E00000F0030EE6EC11F0F8EC11F0030EE82E10
:1020F000FED700F0020EE6EC11F0F8EC11F0030E42
:10210000E82EFED700F00F0E956E12009E0EF66EB2
:10211000220EF76E000EF86E01EE54F010EE40F055
:102120000900F5CFEEFFE550E150FAE1FE0EF66E44
:10213000230EF76E000EF86E00EEE4F010EE04F0E1
:102140000900F5CFEEFFE550E150FAE101EE00F0B5
:10215000540EEE6AE806FDE100EE60F0540EEE6A01
:10216000E806FDE100018BEF0DF0E4C0B4F0E5C03E
:10217000B5F0E6C0B6F0E7C0B7F06D0E0001B86F7D
:102180004E0EB96FC60EBA6F410EBB6FE5EC0FF085
:10219000B4C0E4F0B5C0E5F0B6C0E6F0B7C0E7F013
:1021A000390E0001E427300EE523000EE623000E71
:1021B000E723FF0EE615C06F7F0EE715C16F120013
:1021C0000001B76F0001B7516FEC11F00001B86F5B
:1021D000F9EF10F0C00E1BEC10F009EF11F0940EA7
:1021E0001BEC10F009EF11F0D40E1BEC10F009EF0E
:1021F00011F00001B851940AD8B4EAEF10F0540A73
:10220000D8B4F4EF10F0140AD8B4EFEF10F009EFDF
:1022100011F01200BAC0BEF0BBC0BFF015EF11F054
:102220000001BE4BBF2BBC4BBD2BBCC0F6FFBDC0DD
:10223000F7FFF86ABEC0D9FFBFC0DAFF0800F5CFCC
:10224000DFFFDF50D8A427EF11F029EF11F010EFD6
:1022500011F0BAC0BAF0BBC0BBF01200809080820F
:10226000808400F0FCEC11F00001B46FB439F00B85
:102270000001B56F8094808400F0FCEC11F0000147
:10228000B51380940001B5BF48EF11F04AEF11F08B
:1022900030EF11F080920001B5517F0B120008045D
:1022A000040A111F11001F1F1F1F1F1F1F1F0000E7
:1022B000040E0E0E040008040E111F100E00080478
:1022C0001F101E101F00040A0E111F100E0008041C
:1022D0000E010F110F00040A0E010F110F00000173
:1022E000B66F2EEC11F0000E956E8080809200018A
:1022F000B6390F0BE6EC11F0F8EC11F00001B65115
:10230000E6EC11F0F8EC11F00F0E956E2EEC11F0DA
:1023100012000001B56FB5C0B4F00001B447B44776
:10232000C250B419C30BB419C26EC282C2B29BEFC1
:1023300011F09DEF11F096EF11F0C450120051EC26
:1023400010F0280E1BEC10F00F0E1BEC10F0010E1D
:102350001BEC10F0060E1BEC10F0800E1BEC10F0C6
:102360005BEC0FF012000001B451B603F3CFB8F0EC
:10237000F4CFB9F0B451B703F350B927B551B60350
:10238000F350B927B8C0B4F0B9C0B5F01200000ED0
:10239000956E000E7E6E000E926E7E8EC280000ED6
:1023A000C16EC09EC70EC016F80EC0161200948EE5
:1023B000948C000EB06E190EAF6EB886AC84AC98DB
:1023C000AC8AAB88AB8E000E7E6E12000001B56F3A
:1023D00083CFB4F0F00E0001B4170001B5510F0B1C
:1023E0000001B411836E1200020E1BEC10F01200FB
:1023F000808400F08094120083500F0B12000100C3
:0424000000001200C6
:020000040020DA
:08000000FFFFFFFFFFFFFFFF00
:020000040030CA
:0E000000FF081F1EFF8B81FF0FC00FE00F4097
:00000001FF
