:020000040000FA
:04000000A9EF11F063
:10060000004C41423620596F756C69616E20486F0D
:100610007565686F756E6F750000000E0001C46F20
:10062000000EC36F000E0001C86F000EC76F000EF2
:100630000001C66F000EC56F0001BBBF2BEF03F0BA
:10064000BB5107E1030EBA5DD8B029EF03F02BEFE1
:1006500003F0EBEF03F00001BBBF37EF03F0BB513A
:1006600008E1BA05D8A037EF03F039EF03F0EBEF5C
:1006700003F00001BDBF45EF03F0BD5108E1BC052B
:10068000D8A045EF03F047EF03F0EBEF03F00001D4
:10069000BDBF56EF03F0BD5107E1140EBC5DD8B0ED
:1006A00054EF03F056EF03F0EBEF03F00001C769DE
:1006B000C8690001C8BF66EF03F0C85109E1020E26
:1006C000C75DD8A066EF03F068EF03F06AEF03F0B0
:1006D000EBEF03F00001C569C6690001C6BF7AEF00
:1006E00003F0C65109E1020EC55DD8A07AEF03F010
:1006F0007CEF03F07EEF03F0D9EF03F0BAC0B4F063
:10070000BBC0B5F0000E0001B76F150EB66FB2ECAE
:1007100012F0600E0001BE6F000EBF6F0001B451F9
:100720000001BE270001B5510001BF23C7C0B4F0CE
:10073000C8C0B5F0000E0001B76F150EB66FB2EC71
:1007400012F00001B4510001BE270001B5510001B3
:10075000BF230001BC510001BE270001BD510001B3
:10076000BF230001C5510001BE25D96E0001C6514D
:100770000001BF21DA6E020EDE18D8A4C2EF03F02A
:10078000C4EF03F0C7EF03F00001C34BC42B00011B
:10079000C54BC62B0001C6BFD7EF03F0C65109E118
:1007A000020EC55DD8A0D7EF03F0D9EF03F07EEFBE
:1007B00003F00001C74BC82B0001C8BFE9EF03F0ED
:1007C000C85109E1020EC75DD8A0E9EF03F0EBEFD5
:1007D00003F06AEF03F00001BA51BB11D8A4F3EFA4
:1007E00003F0F5EF03F093EF04F00001BC51BD11ED
:1007F000D8A4FDEF03F0FFEF03F093EF04F0BAC0CD
:10080000B4F0BBC0B5F0000E0001B76F150EB66FA7
:10081000B2EC12F0600E0001BE6F000EBF6F010E51
:10082000BE27000EBF230001B4510001BE27000106
:10083000B5510001BF230001BC510001BE25D96E96
:100840000001BD510001BF21DA6E020EDE18D8A4EE
:100850002CEF04F02EEF04F031EF04F00001C34B55
:10086000C42B000E0001C66F000EC56F0001C6BF8D
:1008700043EF04F0C65109E1020EC55DD8A043EF75
:1008800004F045EF04F047EF04F093EF04F0BAC032
:10089000B4F0BBC0B5F0000E0001B76F150EB66F17
:1008A000B2EC12F0600E0001BE6F000EBF6F150EAD
:1008B000BE27000EBF230001B4510001BE27000176
:1008C000B5510001BF230001BC510001BE2700014A
:1008D000BD510001BF230001C5510001BE25D96EE5
:1008E0000001C6510001BF21DA6E020EDE18D8A445
:1008F0007CEF04F07EEF04F081EF04F00001C34BC5
:10090000C42B0001C54BC62B0001C6BF91EF04F0FC
:10091000C65109E1020EC55DD8A091EF04F093EF36
:1009200004F047EF04F00001BA51BB11D8A49BEFCB
:1009300004F09DEF04F0AFEF05F00001BDBFACEF98
:1009400004F0BD5107E1140EBC5DD8B0AAEF04F06D
:10095000ACEF04F0AFEF05F00001BDBFB8EF04F05D
:10096000BD5108E1BC05D8A0B8EF04F0BAEF04F01F
:10097000AFEF05F00001C769C8690001C8BFCAEF41
:1009800004F0C85109E1020EC75DD8A0CAEF04F017
:10099000CCEF04F0CEEF04F018EF05F0BAC0B4F0DD
:1009A000BBC0B5F0000E0001B76F150EB66FB2EC0C
:1009B00012F0600E0001BE6F000EBF6F0001B45157
:1009C0000001BE270001B5510001BF230001BC5149
:1009D0000001BE270001BD510001BF230001C75126
:1009E0000001BE25D96E0001C8510001BF21DA6E99
:1009F000020EDE18D8A4FFEF04F001EF05F004EFBB
:100A000005F00001C34BC42B0001C74BC82BC74BDB
:100A1000C82B0001C8BF16EF05F0C85109E1020E4E
:100A2000C75DD8A016EF05F018EF05F0CEEF04F083
:100A3000000E0001C86F010EC76F0001C8BF2AEF8A
:100A400005F0C85109E1020EC75DD8A02AEF05F0F4
:100A50002CEF05F02EEF05F0AFEF05F00001C569B2
:100A6000C6690001C6BF3EEF05F0C65109E1020E9E
:100A7000C55DD8A03EEF05F040EF05F042EF05F070
:100A80009DEF05F0BAC0B4F0BBC0B5F0000E000198
:100A9000B76F150EB66FB2EC12F0600E0001BE6FAC
:100AA000000EBF6F0001B4510001BE270001B55117
:100AB0000001BF23C7C0B4F0C8C0B5F0000E0001EC
:100AC000B76F150EB66FB2EC12F00001B451000111
:100AD000BE270001B5510001BF230001BC51000138
:100AE000BE270001BD510001BF230001C551000117
:100AF000BE25D96E0001C6510001BF21DA6E020E7B
:100B0000DE18D8A486EF05F088EF05F08BEF05F02E
:100B10000001C34BC42B0001C54BC62B0001C6BF4F
:100B20009BEF05F0C65109E1020EC55DD8A09BEF11
:100B300005F09DEF05F042EF05F00001C74BC82B13
:100B40000001C8BFADEF05F0C85109E1020EC75D55
:100B5000D8A0ADEF05F0AFEF05F02EEF05F00001E6
:100B6000BA51BB11D8A4B7EF05F0B9EF05F058EFB3
:100B700006F0140E0001BC19BD11D8A4C2EF05F097
:100B8000C4EF05F058EF06F0BAC0B4F0BBC0B5F042
:100B9000000E0001B76F150EB66FB2EC12F0FF0E2B
:100BA0000001BE6FFF0EBF6F600EC06F000EC16F01
:100BB000BE51C027BF51C1230001B4510001C0275D
:100BC0000001B5510001C1230001BC510001C02545
:100BD000D96E0001BD510001C121DA6E020EDE188E
:100BE000D8A4F5EF05F0F7EF05F0FAEF05F00001F6
:100BF000C34BC42B0001C769C8690001C8BF09EF16
:100C000006F0C85108E1C705D8A009EF06F00BEFC0
:100C100006F00DEF06F058EF06F0BAC0B4F0BBC016
:100C2000B5F0000E0001B76F150EB66FB2EC12F002
:100C3000600E0001BE6F000EBF6F150EBE27000EC6
:100C4000BF230001B4510001BE270001B5510001CE
:100C5000BF230001BC510001BE270001BD510001AE
:100C6000BF230001C7510001BE25D96E0001C85144
:100C70000001BF21DA6E020EDE18D8A442EF06F0A2
:100C800044EF06F047EF06F00001C34BC42B000110
:100C9000C74BC82B0001C8BF56EF06F0C85108E18A
:100CA000C705D8A056EF06F058EF06F00DEF06F096
:100CB000030E0001BA19BB11D8A461EF06F063EF6F
:100CC00006F00CEF07F00001BC51BD11D8A46BEF8A
:100CD00006F06DEF06F00CEF07F0BAC0B4F0BBC041
:100CE000B5F0000E0001B76F150EB66FB2EC12F042
:100CF000EB0E0001BE6FFF0EBF6F600EC06F000EE7
:100D0000C16FBE51C027BF51C1230001B4510001C2
:100D1000C0270001B5510001C1230001BC510001F1
:100D2000C025D96E0001BD510001C121DA6E020E4D
:100D3000DE18D8A49EEF06F0A0EF06F0A3EF06F0B1
:100D40000001C34BC42B0001C769C8690001C8BFBB
:100D5000B2EF06F0C85108E1C705D8A0B2EF06F01F
:100D6000B4EF06F0B6EF06F00CEF07F0BAC0B4F03F
:100D7000BBC0B5F0000E0001B76F150EB66FB2EC38
:100D800012F0600E0001BE6F000EBF6F010EBE2795
:100D9000000EBF230001B4510001BE270001B55170
:100DA0000001BF23C7C0B4F0C8C0B5F0000E0001F9
:100DB000B76F150EB66FB2EC12F00001B45100011E
:100DC000BE270001B5510001BF230001BC51000145
:100DD000BE25D96E0001BD510001BF21DA6E020EA1
:100DE000DE18D8A4F6EF06F0F8EF06F0FBEF06F0F9
:100DF0000001C34BC42B0001C74BC82B0001C8BF67
:100E00000AEF07F0C85108E1C705D8A00AEF07F0BC
:100E10000CEF07F0B6EF06F0030E0001BA19BB1194
:100E2000D8A415EF07F017EF07F0F6EF07F0000171
:100E3000BDBF26EF07F0BD5107E1140EBC5DD8B071
:100E400024EF07F026EF07F0F6EF07F00001BDBF33
:100E500032EF07F0BD5108E1BC05D8A032EF07F032
:100E600034EF07F0F6EF07F00001C569C66900012D
:100E7000C6BF44EF07F0C65109E1020EC55DD8A018
:100E800044EF07F046EF07F048EF07F098EF07F060
:100E9000BAC0B4F0BBC0B5F0000E0001B76F150EBC
:100EA000B66FB2EC12F0EB0E0001BE6FFF0EBF6F1B
:100EB000600EC06F000EC16FBE51C027BF51C1236D
:100EC0000001B4510001C0270001B5510001C12348
:100ED0000001BC510001C0270001BD510001C12328
:100EE0000001C5510001C025D96E0001C6510001A5
:100EF000C121DA6E020EDE18D8A481EF07F083EF6D
:100F000007F086EF07F00001C34BC42B0001C54B6F
:100F1000C62B0001C6BF96EF07F0C65109E1020ECD
:100F2000C55DD8A096EF07F098EF07F048EF07F0FF
:100F30000001C769C8690001C8BFA8EF07F0C85120
:100F400009E1020EC75DD8A0A8EF07F0AAEF07F0ED
:100F5000ACEF07F0F6EF07F0BAC0B4F0BBC0B5F0E5
:100F6000000E0001B76F150EB66FB2EC12F0600EF6
:100F70000001BE6F000EBF6F0001B4510001BE271B
:100F80000001B5510001BF230001BC510001BE2783
:100F90000001BD510001BF230001C7510001BE2562
:100FA000D96E0001C8510001BF21DA6E020EDE18B1
:100FB000D8A4DDEF07F0DFEF07F0E2EF07F0000164
:100FC000C34BC42B0001C74BC82BC74BC82B000118
:100FD000C8BFF4EF07F0C85109E1020EC75DD8A001
:100FE000F4EF07F0F6EF07F0ACEF07F0030E0001A7
:100FF000BA19BB11D8A4FFEF07F001EF08F0A4EF76
:1010000008F0140E0001BC19BD11D8A40AEF08F0B5
:101010000CEF08F0A4EF08F00001C769C8690001EF
:10102000C8BF1BEF08F0C85108E1C705D8A01BEFE7
:1010300008F01DEF08F01FEF08F06EEF08F0BAC0DF
:10104000B4F0BBC0B5F0000E0001B76F150EB66F5F
:10105000B2EC12F0EB0E0001BE6FFF0EBF6F600E20
:10106000C06F000EC16FBE51C027BF51C123000128
:10107000B4510001C0270001B5510001C123000196
:10108000BC510001C0270001BD510001C123000176
:10109000C7510001C025D96E0001C8510001C1210E
:1010A000DA6E020EDE18D8A458EF08F05AEF08F0F6
:1010B0005DEF08F00001C34BC42B0001C74BC82BE8
:1010C0000001C8BF6CEF08F0C85108E1C705D8A0FF
:1010D0006CEF08F06EEF08F01FEF08F0BAC0B4F044
:1010E000BBC0B5F0000E0001B76F150EB66FB2ECC5
:1010F00012F0FF0E0001BE6FFF0EBF6F600EC06FDB
:10110000000EC16FBE51C027BF51C1230001B451B1
:101110000001C0270001B5510001C1230001BC51ED
:101120000001C025D96E0001BD510001C121DA6E58
:10113000020EDE18D8A49FEF08F0A1EF08F0A4EF8C
:1011400008F00001C34BC42B0001C3511200000181
:10115000C16F0001C469C569000E0001C06F000EB7
:10116000BF6F0001BA51150D000E0001BB6F010EDB
:10117000BC6FF350BB27F450BC230001C1510001E8
:10118000BB25D96E0001000E0001BC21DA6E200ED5
:10119000DF6E0001C469C5690001C5BFD9EF08F061
:1011A000C55109E1020EC45DD8A0D9EF08F0DBEF0C
:1011B00008F0DDEF08F01DEF0AF00001BA51D8A4E5
:1011C000E4EF08F0E6EF08F0F6EF08F00001C429BC
:1011D00006E1C529D8A4EFEF08F0F1EF08F0F6EF2B
:1011E00008F0000E0001C56F000EC46F0001C26957
:1011F000C3690001C3BF06EF09F0C35109E1020E44
:10120000C25DD8A006EF09F008EF09F00AEF09F077
:10121000F2EF09F00001C151D8A411EF09F013EF6A
:1012200009F023EF09F00001C22906E1C329D8A47F
:101230001CEF09F01EEF09F023EF09F0000E00018A
:10124000C36F000EC26FC4C0B4F0C5C0B5F0000ECD
:101250000001B76F150EB66FB2EC12F00001BA5173
:10126000150D600E0001BB6F000EBC6FF350BB2765
:10127000F450BC230001B4510001BB270001B5515B
:101280000001BC230001C1510001BB27000EBC239B
:101290000001C2510001BB25D96E0001C3510001FC
:1012A000BC21DA6EC4C0B4F0C5C0B5F0000E0001B8
:1012B000B76F150EB66FB2EC12F00001BA51150DF2
:1012C000000E0001BD6F010EBE6FF350BD27F4503C
:1012D000BE230001B4510001BD270001B55100013A
:1012E000BE230001C1510001BD27000EBE23000135
:1012F000C2510001BD25E16E0001C3510001BE21B4
:10130000E26EDFCFE7FF0001BA510001C425000102
:10131000BB6FBB290001B76F0001C1510001C2259D
:101320000001BC6FBC29CFEC10F0C4C0B4F0C5C044
:10133000B5F0000E0001B76F150EB66FB2EC12F0EB
:101340000001BA51150D000E0001BB6F010EBC6FFC
:10135000F350BB27F450BC230001B4510001BB275C
:101360000001B5510001BC230001C1510001BB27A0
:10137000000EBC230001C2510001BB25D96E000143
:10138000C3510001BC21DA6EDF5003EC12F0130EE2
:101390000001C119D8A4CFEF09F0D1EF09F0E0EFB7
:1013A00009F00001C251C311D8A4D9EF09F0DBEF55
:1013B00009F0E0EF09F0000E0001C36F010EC26FEB
:1013C0000001C24BC32B0001C3BFF0EF09F0C351B2
:1013D00009E1020EC25DD8A0F0EF09F0F2EF09F0CA
:1013E0000AEF09F0030E0001BA19D8A4FAEF09F0C8
:1013F000FCEF09F00BEF0AF00001C451C511D8A4AD
:1014000004EF0AF006EF0AF00BEF0AF0000E0001FD
:10141000C56F010EC46F0001C44BC52B0001C5BFD1
:101420001BEF0AF0C55109E1020EC45DD8A01BEF05
:101430000AF01DEF0AF0DDEF08F01200000E0001C7
:10144000CF6F000ECE6F000E0001D16F000ED06F77
:10145000000E0001CD6F000ECC6F000E0001CF6FAB
:10146000000ECE6F0001CFBF3FEF0AF0CF5109E170
:10147000040ECE5DD8A03FEF0AF041EF0AF043EF33
:101480000AF01AEF0BF0000E0001D16F000ED06FC2
:101490000001D1BF55EF0AF0D15109E1140ED05D22
:1014A000D8A055EF0AF057EF0AF059EF0AF008EF0D
:1014B0000BF0CEC0B4F0CFC0B5F0000E0001B76F96
:1014C000150EB66FB2EC12F0600E0001C96F000E7F
:1014D000CA6F0001B4510001C9270001B5510001D4
:1014E000CA230001D0510001C925D96E0001D15194
:1014F0000001CA21DA6E020EDE18D8B482EF0AF0BB
:1015000084EF0AF0F6EF0AF0CEC0BAF0CFC0BBF01D
:10151000D0C0BCF0D1C0BDF00DEC03F00001C96F2C
:10152000C9510001CC6FCD6B0001CC51CD11D8A4B5
:101530009CEF0AF09EEF0AF0C2EF0AF0CEC0B4F0C2
:10154000CFC0B5F0000E0001B76F150EB66FB2EC4C
:1015500012F0600E0001C96F000ECA6F0001B45195
:101560000001C9270001B5510001CA230001D05173
:101570000001C925D96E0001D1510001CA21DA6EDE
:10158000200EDF6E0001CDBFCEEF0AF0CD5108E195
:10159000CC05D8A0CEEF0AF0D0EF0AF0F6EF0AF0B3
:1015A000CEC0B4F0CFC0B5F0000E0001B76F150E7D
:1015B000B66FB2EC12F0600E0001C96F000ECA6F78
:1015C0000001B4510001C9270001B5510001CA232F
:1015D0000001D0510001C925D96E0001D15100018F
:1015E000CA21DA6E0001CC51300FDF6E0001D04B02
:1015F000D12B0001D1BF06EF0BF0D15109E1140E40
:10160000D05DD8A006EF0BF008EF0BF059EF0AF011
:101610000001CE4BCF2B0001CFBF18EF0BF0CF5105
:1016200009E1040ECE5DD8A018EF0BF01AEF0BF015
:1016300043EF0AF01200000E0001CE6F000ECD6FD6
:10164000000E0001D06F000ECF6F000E0001D16FB1
:10165000000E0001D26F000E0001D36F000E0001DA
:10166000D56F000ED46F0001D5BF40EF0BF0D55100
:1016700009E1040ED45DD8A040EF0BF042EF0BF06F
:1016800044EF0BF0F6EF0BF0000E0001D76F000EE9
:10169000D66F0001D7BF56EF0BF0D75109E1140EFA
:1016A000D65DD8A056EF0BF058EF0BF05AEF0BF0C9
:1016B00090EF0BF0D4C0B4F0D5C0B5F0000E00012F
:1016C000B76F150EB66FB2EC12F0600E0001CA6F64
:1016D000000ECB6F0001B4510001CA270001B551C3
:1016E0000001CB230001D6510001CA25D96E0001AB
:1016F000D7510001CB21DA6E200EDF6E0001D64BF0
:10170000D72B0001D7BF8EEF0BF0D75109E1140E94
:10171000D65DD8A08EEF0BF090EF0BF05AEF0BF0E8
:101720000001D44BD52B0001D5BFA0EF0BF0D55154
:1017300009E1040ED45DD8A0A0EF0BF0A2EF0BF0EE
:1017400044EF0BF0F6EF0BF0D8EC11F0C0C0C2F094
:10175000C1C0C3F0000E0001C56F140EC46FD0EC01
:101760000FF00001C2510001D16FD8EC11F000015F
:10177000C051030B0001D26F0001D251150D600E54
:101780000001CA6F000ECB6FF350CA27F450CB2371
:101790000001D1510001CA25D96E0001000E0001DF
:1017A000CB21DA6E200EDE18D8A4D9EF0BF0DBEFD8
:1017B0000BF0F6EF0BF00001D251150D600E000199
:1017C000CA6F000ECB6FF350CA27F450CB23000131
:1017D000D1510001CA25D96E0001000E0001CB21B4
:1017E000DA6E020EDF6E0001D329D36F0001D351F0
:1017F0000001CA6FCB6B0001C8510001CA1909E191
:101800000001C9510001CB19D8A409EF0CF00BEF6E
:101810000CF0A4EF0BF012000001CC6F0001CC051E
:10182000CC6F0001C605C66F010E0001CB6F000131
:10183000C651150D600E0001C76F000EC86FF35042
:10184000C727F450C8230001CC510001C725D96E29
:101850000001000E0001C821DA6E020EDE18D8A4C5
:1018600034EF0CF036EF0CF03BEF0CF0000E000103
:10187000CB6FCEEF0CF00001C651150D600E0001CC
:10188000C76F000EC86FF350C727F450C82300017C
:10189000CC510001C725D96E0001000E0001C821FE
:1018A000DA6E020EDE18D8B458EF0CF05AEF0CF0D6
:1018B00084EF0CF00001C651150D600E0001C76FDA
:1018C000000EC86FF350C727F450C8230001CC5155
:1018D0000001C725D96E0001000E0001C821DA6E93
:1018E000200EDE18D8A477EF0CF079EF0CF084EF1F
:1018F0000CF0010E0001CB6FC6C0BAF00001CC5154
:10190000A7EC08F0CEEF0CF0010E0001CB6F000148
:10191000C651150D600E0001C76F000EC86FF35061
:10192000C727F450C8230001CC510001C725D96E48
:101930000001000E0001C821DA6E0001C651150D2C
:10194000000E0001C96F010ECA6FF350C927F45091
:10195000CA230001CC510001C925E16E0001000E2F
:101960000001CA21E26EDFCFE7FF0001C651150D6D
:10197000000E0001C76F010EC86FF350C727F45067
:10198000C8230001CC510001C725D96E0001000E0B
:101990000001C821DA6EDF5003EC12F00001CB51D8
:1019A0001200070E88EC12F00001BD6F6E0EBD61D3
:1019B000DCEF0CF0DEEF0CF0FFEF0CF0B9C0D9FF5C
:1019C000BAC0DAFFDF500001BD6FBD29B9C0D9FF31
:1019D000BAC0DAFFDF6EB9C0D9FFBAC0DAFF140EA1
:1019E000DF64F5EF0CF0F7EF0CF02BEF0DF0B9C062
:1019F000D9FFBAC0DAFF010EDF6E2BEF0DF0070E34
:101A000088EC12F00001BD6FC80EBD650AEF0DF045
:101A10000CEF0DF02BEF0DF0B9C0D9FFBAC0DAFF13
:101A2000DF500001BD6FBD05B9C0D9FFBAC0DAFFF4
:101A3000DF6EB9C0D9FFBAC0DAFFDF50D8A423EFF8
:101A40000DF025EF0DF02BEF0DF0B9C0D9FFBAC0A6
:101A5000DAFF140EDF6E060E88EC12F00001BD6F87
:101A60006E0EBD6136EF0DF038EF0DF059EF0DF051
:101A7000BBC0D9FFBCC0DAFFDF500001BD6FBD297C
:101A8000BBC0D9FFBCC0DAFFDF6EBBC0D9FFBCC092
:101A9000DAFF040EDF644FEF0DF051EF0DF085EF2C
:101AA0000DF0BBC0D9FFBCC0DAFF010EDF6E85EFC1
:101AB0000DF0060E88EC12F00001BD6FC80EBD657A
:101AC00064EF0DF066EF0DF085EF0DF0BBC0D9FFB0
:101AD000BCC0DAFFDF500001BD6FBD05BBC0D9FF40
:101AE000BCC0DAFFDF6EBBC0D9FFBCC0DAFFDF507D
:101AF000D8A47DEF0DF07FEF0DF085EF0DF0BBC0AA
:101B0000D9FFBCC0DAFF040EDF6EBBC0D9FFBCC07A
:101B1000DAFFDF500001B76FB9C0D9FFBAC0DAFFF2
:101B2000DF50CFEC10F01200000E0001BD6F000E70
:101B3000BC6F000E0001BF6F000EBE6F000E0001F3
:101B4000BD6F000EBC6F0001BDBFB0EF0DF0BD5109
:101B500009E1040EBC5DD8A0B0EF0DF0B2EF0DF0BE
:101B6000B4EF0DF050EF0EF0000E0001BF6F000E4D
:101B7000BE6F0001BFBFC6EF0DF0BF5109E1150EEA
:101B8000BE5DD8A0C6EF0DF0C8EF0DF0CAEF0DF0A6
:101B90003EEF0EF00001BDBFD9EF0DF0BD5107E1E2
:101BA000140EBC5DD8B0D7EF0DF0D9EF0DF0FDEFFE
:101BB0000DF0BCC0B4F0BDC0B5F0000E0001B76FB1
:101BC000150EB66FB2EC12F0000E0001BA6F010EE6
:101BD000BB6F0001B4510001BA270001B5510001EB
:101BE000BB230001BE510001BA25D96E0001BF51CF
:101BF0000001BB21DA6E010EDF6E140E0001BE196A
:101C0000BF11D8A406EF0EF008EF0EF02CEF0EF087
:101C1000BCC0B4F0BDC0B5F0000E0001B76F150E2A
:101C2000B66FB2EC12F0000E0001BA6F010EBB6F7E
:101C30000001B4510001BA270001B5510001BB23D6
:101C40000001BE510001BA25D96E0001BF5100014B
:101C5000BB21DA6E000EDF6E0001BE4BBF2B000110
:101C6000BFBF3CEF0EF0BF5109E1150EBE5DD8A01D
:101C70003CEF0EF03EEF0EF0CAEF0DF00001BC4B52
:101C8000BD2B0001BDBF4EEF0EF0BD5109E1040EAA
:101C9000BC5DD8A04EEF0EF050EF0EF0B4EF0DF09B
:101CA0001200000E0001C06F000EBF6F000E000199
:101CB000C16F000E0001C36F000EC26F000E000165
:101CC000C56F000EC46F000E0001C36F000EC26F1F
:101CD0000001C3BF75EF0EF0C35109E1040EC25DF0
:101CE000D8A075EF0EF077EF0EF079EF0EF0E0EF81
:101CF0000EF0000E0001C56F000EC46F0001C5BFDD
:101D00008BEF0EF0C55109E1140EC45DD8A08BEF26
:101D10000EF08DEF0EF08FEF0EF0CEEF0EF0C2C092
:101D2000B4F0C3C0B5F0000E0001B76F150EB66F6A
:101D3000B2EC12F0000E0001BC6F010EBD6F00018D
:101D4000B4510001BC270001B5510001BD230001C1
:101D5000C4510001BC25D96E0001C5510001BD214F
:101D6000DA6EDE04D8A4B7EF0EF0B9EF0EF0BCEFD8
:101D70000EF00001BF4BC02B0001C44BC52B00016E
:101D8000C5BFCCEF0EF0C55109E1140EC45DD8A05B
:101D9000CCEF0EF0CEEF0EF08FEF0EF00001C24B45
:101DA000C32B0001C3BFDEEF0EF0C35109E1040EE7
:101DB000C25DD8A0DEEF0EF0E0EF0EF079EF0EF08E
:101DC000BAC0D9FFBBC0DAFF0001BF51DE1807E17E
:101DD000C051DE18D8A4EFEF0EF0F1EF0EF0F6EFE1
:101DE0000EF0010E0001C16FF6EC12F00001C151BE
:101DF0001200C6EC12F0D9EC12F09EEC12F094EC4A
:101E00000DF0FDEC12F0000E0001DA6F0C0ED96F30
:101E10000A0E0001DB6F020E0001DC6F010E0001F3
:101E2000BA6F060EBB6FBA51BB11D8A4000EBC6FBF
:101E300076EC0FF0D9C0C8F0DAC0C9F01BEC0BF09B
:101E40001EEC0AF029EC10F0DB0E0001B96F000E59
:101E5000BA6FDC0E0001BB6F000EBC6FD1EC0CF052
:101E600081B235EF0FF037EF0FF069EF0FF0DCC004
:101E7000C6F00001DB510CEC0CF00009D8B443EFC4
:101E80000FF045EF0FF054EF0FF0D90E0001BA6FCD
:101E9000000EBB6F51EC0EF0E806D8A452EF0FF025
:101EA00054EF0FF069EF0FF029EC10F081B25BEF07
:101EB0000FF05DEF0FF056EF0FF094EC0DF0D9C07E
:101EC000C8F0DAC0C9F01BEC0BF01EEC0AF029ECEC
:101ED00010F0210E0001D86F760EE82EFED7D82F15
:101EE000FCD700F024EF0FF000EF00F0000E00012F
:101EF000C26FA3EF0FF00001C2510001BD6FBE6BB6
:101F0000BD510001BA250001BF6FBE510001BB21C8
:101F10000001C06F000E0001BC210001C16FBFC0F5
:101F2000F6FFC0C0F7FFC1C0F8FFF8BA03D0080041
:101F3000F55005D0F6CFE9FFF7CFEAFFEF5003ECFD
:101F400012F00001C22B0001C2510001BD6FBE6B37
:101F5000BD510001BA250001BF6FBE510001BB2178
:101F60000001C06F000E0001BC210001C16FBFC0A5
:101F7000F6FFC0C0F7FFC1C0F8FFF8BA03D00800F1
:101F8000F55005D0F6CFE9FFF7CFEAFFEF50000993
:101F9000D8A4CDEF0FF0CFEF0FF07BEF0FF01200D2
:101FA000000E0001C76FC3BFDAEF0FF0D8EF0FF0DC
:101FB000E0EF0FF0C26DC31FD8B0C32B010EC76F87
:101FC000C5BFE7EF0FF0E5EF0FF0EBEF0FF0C46DDB
:101FD000C51FD8B0C52BC451C511D8B4F2EF0FF04E
:101FE000F4EF0FF018EF10F0010EC66FFCEF0FF0DA
:101FF000D890C437C537C62BC5AF01EF10F003EF3B
:1020000010F0F8EF0FF0C451C25DC551C359D8A00C
:102010000CEF10F00EEF10F012EF10F0C451C25F91
:10202000C551C35BD890C533C433C62F03EF10F03E
:10203000C751D8B41EEF10F020EF10F024EF10F0CD
:10204000C26DC31FD8B0C32BC2C0C2F0C3C0C3F09F
:102050001200000E0001C66F000EC56F000EC66FA5
:10206000000EC56F0001C6BF3FEF10F0C65109E179
:10207000040EC55DD8A03FEF10F041EF10F043EF24
:1020800010F07DEF10F00001C5290001B76F010EBF
:10209000CFEC10F0C5C0B4F0C6C0B5F0000E000122
:1020A000B76F150EB66FB2EC12F0000E0001B4253A
:1020B0000001C36F010E0001B5210001C46FC3C050
:1020C000BAF0C4C0BBF00001BA51BB11D8A4200EB5
:1020D000BC6F76EC0FF00001C54BC62B0001C6BFEC
:1020E0007BEF10F0C65109E1040EC55DD8A07BEF6F
:1020F00010F07DEF10F043EF10F01200400E3EECB8
:1021000011F0000E0001B96F070E0001B9658BEFE9
:1021100010F08DEF10F08FEF10F0CCEF10F0000EFC
:102120000001BA6F070E0001BA6599EF10F09BEF3E
:1021300010F09DEF10F0C1EF10F00001B951080D43
:10214000540E0001B76F010EB86FF350B727F4506B
:10215000B8230001BA510001B725D96E0001000E65
:102160000001B821DA6EDF506EEC12F00001BA2BDC
:10217000070E0001BA65BFEF10F0C1EF10F09DEF40
:1021800010F00001B92B070E0001B965CAEF10F07D
:10219000CCEF10F08FEF10F0FDEC12F01200000108
:1021A000B86FF3EF10F00001B8517F0F80093EECDB
:1021B00011F007EF11F00001B851BF0F80093EEC9C
:1021C00011F007EF11F00001B851930F80093EECB8
:1021D00011F007EF11F00001B851D30F80093EEC68
:1021E00011F007EF11F00001B751010AD8B4D3EF95
:1021F00010F0030AD8B4DBEF10F0010AD8B4E3EF13
:1022000010F0070AD8B4EBEF10F007EF11F012004E
:10221000000E0001BC6F000EBD6F000EBE6F000E01
:10222000BF6FB4A116EF11F018EF11F020EF11F00D
:10223000B851BC27B951BD23BA51BE23BB51BF23EE
:10224000D890B837B937BA37BB37D890B733B63329
:10225000B533B433B451B511B611B711D8A433EFB7
:1022600011F035EF11F011EF11F0BCC0B4F0BDC0AA
:10227000B5F0BEC0B6F0BFC0B7F012000001B66F37
:102280002DEC12F0000E956E809080920001B63910
:102290000F0BE8EC12F001EC13F00001B651E8EC82
:1022A00012F001EC13F0030EE82EFED700F000014F
:1022B000B605D8B45EEF11F060EF11F06AEF11F0DF
:1022C000020E0001B619D8A468EF11F06AEF11F000
:1022D0006FEF11F0A60EE82EFED700F000F00F0E03
:1022E000956E2DEC12F01200000E956E0D0E000191
:1022F000B66FFB0EE82EFED7B62FFCD700F000F02D
:1023000080908092030EE8EC12F001EC13F0030EC3
:10231000E82EFED700F0030EE8EC12F001EC13F00B
:10232000030EE82EFED700F0030EE8EC12F001ECED
:1023300013F0030EE82EFED700F0020EE8EC12F0C8
:1023400001EC13F0030EE82EFED700F00F0E956E91
:1023500012009C0EF66E240EF76E000EF86E01EE63
:1023600054F010EE40F00900F5CFEEFFE550E150DB
:10237000FAE1100EF66E260EF76E000EF86E00EE05
:10238000DDF010EE04F00900F5CFEEFFE550E1506E
:10239000FAE101EE00F0540EEE6AE806FDE100EE0F
:1023A00060F0540EEE6AE806FDE10001F9EF0EF070
:1023B000DDC0B4F0DEC0B5F0DFC0B6F0E0C0B7F00D
:1023C0006D0E0001B86F4E0EB96FC60EBA6F410E9A
:1023D000BB6F08EC11F0B4C0DDF0B5C0DEF0B6C0E4
:1023E000DFF0B7C0E0F0390E0001DD27300EDE234C
:1023F000000EDF23000EE023FF0EDF15C06F7F0EFF
:10240000E015C16F12000001B76F0001B7516EEC0B
:1024100012F00001B86F1CEF12F0C00E3EEC11F08C
:102420002CEF12F0940E3EEC11F02CEF12F0D40EC3
:102430003EEC11F02CEF12F00001B851940AD8B420
:102440000DEF12F0540AD8B417EF12F0140AD8B4F2
:1024500012EF12F02CEF12F0120080908082808434
:1024600000F005EC13F00001B46FB439F00B00017B
:10247000B56F8094808400F005EC13F00001B51373
:1024800080940001B5BF47EF12F049EF12F02FEF33
:1024900012F080920001B5517F0B12000804040A6B
:1024A000111F1100000E0E0E0E0E0E000000040E85
:1024B0000E0E040008040E111F100E0008041F1059
:1024C0001E101F00040A0E111F100E0008040E013A
:1024D0000F110F00040A0E010F110F000001B66F5B
:1024E0002DEC12F0000E956E808080920001B639BE
:1024F0000F0BE8EC12F001EC13F00001B651E8EC20
:1025000012F001EC13F00F0E956E2DEC12F012008C
:102510000001B56FB5C0B4F00001B447B447C25074
:10252000B419C30BB419C26EC282C2B29AEF12F0D0
:102530009CEF12F095EF12F0C450120074EC11F001
:10254000280E3EEC11F00F0E3EEC11F0010E3EECA9
:1025500011F0060E3EEC11F0800E3EEC11F07EEC18
:1025600010F012000001B451B603F3CFB8F0F4CF6D
:10257000B9F0B451B703F350B927B551B603F350CE
:10258000B927B8C0B4F0B9C0B5F01200000E956E0E
:10259000000E7F6E9368000E7E6E000E926E7E8E31
:1025A000C280000EC16EC09EC70EC016F80EC016C7
:1025B0001200948E948C000EB06E190EAF6EB88619
:1025C000AC84AC98AC8AAB88AB8E000E7E6E1200E9
:1025D0000001B56F83CFB4F0F00E0001B417000115
:1025E000B5510F0B0001B411836E1200010E3EECC9
:1025F00011F0800E3EEC11F01200020E3EEC11F0D4
:102600001200808400F08094120083500F0B12009F
:0426100001000000C5
:020000040020DA
:08000000FFFFFFFFFFFFFFFF00
:020000040030CA
:0E000000FF081F1EFF8B81FF0FC00FE00F4097
:00000001FF
